:020000040800F2
:10000000E01A00209D01000801420008A9360008FE
:10001000C9410008010E00081D730008000000001F
:10002000000000000000000000000000FF58000871
:10003000AD13000800000000514E00086D67000875
:10004000B7010008B7010008B7010008B7010008B0
:10005000B7010008B7010008B7010008CB16000877
:10006000D3160008DB160008B7010008B701000826
:10007000B7010008B7010008B7010008B701000880
:10008000B7010008B7010008B7010008B701000870
:10009000B7010008B7010008B7010008B701000860
:1000A000B7010008B7010008B7010008B701000850
:1000B000B7010008B7010008F9680008B701000897
:1000C000B7010008B7010008B7010008B701000830
:1000D000B701000869700008B7010008B7010008FF
:1000E000B7010008B7010008B7010008B701000810
:1000F000B7010008B7010008B7010008B701000800
:10010000B7010008B701000841690008B7010008FD
:10011000B7010008B7010008B7010008B7010008DF
:10012000B7010008B7010008B7010008B7010008CF
:10013000B7010008B7010008B7010008B7010008BF
:10014000B7010008B7010008B7010008B7010008AF
:10015000B7010008B7010008B7010008B70100089F
:10016000B7010008B7010008B7010008B70100088F
:10017000B7010008B7010008B7010008000000003F
:10018000B7010008B7010008DFF80CD000F088F9CB
:100190000048004701740008E01A00200648804724
:1001A00006480047FEE7FEE7FEE7FEE7FEE7FEE75C
:1001B000FEE7FEE7FEE7FEE71D680008890100088C
:1001C0002DE9F05F0546002092469B46884606468C
:1001D000814640241BE0284641464746224600F01F
:1001E000F2F853465A46C01A914110D311461846A8
:1001F000224600F0D9F82D1A67EB01084F46224637
:100200000120002100F0D0F817EB00094E41201E1C
:10021000A4F10104DFDC484631462A464346BDE8E6
:10022000F09F40EA01039B0703D009E008C9121FB1
:1002300008C0042AFAD203E011F8013B00F8013BA0
:10024000521EF9D27047D2B201E000F8012B491ECC
:10025000FBD270470022F6E710B513460A46044663
:100260001946FFF7F0FF204610BD421C10F8011B95
:100270000029FBD1801A70472DE9FE4F81EA030463
:1002800004F0004421F0004100944FF0000B23F0F3
:10029000004350EA01045ED052EA03045BD0C3F38A
:1002A0000A54C1F30A552C44A4F2F3340194A0FB80
:1002B0000254C1F3130141F48011C3F3130343F457
:1002C000801301FB024400FB034E840A970A44EAB0
:1002D000815447EA8357A4FB076802958D0A05FB02
:1002E00007854FEA932C04FB0C542705029D4FEA27
:1002F000065847EA1637B5EB08056EEB070C870E74
:10030000920E47EA811742EA8312A7FB0201B6EB7D
:100310000B0164EB00042B0D43EA0C335E1844EB35
:100320001C50DA465146E7FB0201C5F313044FEABD
:100330000B3343EA14534FEA0432019C43EA0603A9
:10034000A4F10C040294009CCDE900B400F05AF82A
:1003500003B0BDE8F08F00200146F9E70EB540F28A
:10036000334102910021CDE900110A460B4600F00D
:1003700049F803B000BDC1F30A5210B5C1F313012F
:1003800040F2FF3341F480119A4201DA002010BD9F
:1003900040F233439A42A2F2334203DC524200F06D
:1003A00012F810BD904010BD202A04DB203A00FA5C
:1003B00002F1002070479140C2F1200320FA03F3BC
:1003C000194390407047202A04DB203A21FA02F0BA
:1003D0000021704721FA02F3D040C2F1200291407F
:1003E00008431946704710B5141E73F1000408DA6B
:1003F000401C41F1000192185B411A4301D120F0E9
:10040000010010BD2DE9F04D92469B4611B1B1FAA5
:1004100081F202E0B0FA80F220329046FFF7C4FF8A
:1004200004460F4640EA0A0041EA0B0153465A4689
:10043000084313D0114653EA010019D0C8F1400215
:100440005046FFF7C0FF05460E4650465946424605
:10045000FFF7AAFF084305D0012004E020463946F3
:10046000BDE8F08D0020054346EAE0762C43374393
:100470000A986305E40AA0EB08000022FD0A44EA9A
:1004800047540A3002D500200146E9E7010510195A
:100490006941DDE9084500196941BDE8F04DA2E771
:1004A000064C074D06E0E06840F0010394E80700C1
:1004B00098471034AC42F6D3FFF76AFEE87B000899
:1004C000087C000870B58C1810F8015B15F0070364
:1004D00001D110F8013B2A1106D110F8012B03E0DD
:1004E00010F8016B01F8016B5B1EF9D12B0705D4E5
:1004F0000023521E0DD401F8013BFAE710F8013B2E
:10050000CB1A921C03E013F8015B01F8015B521E49
:10051000F9D5A142D8D3002070BD00002DE9F05FCD
:10052000D04D8A460024611E6982C10600F00F0783
:100530004FF00109284685F80B90807BA34604D52F
:100540004FF0010B20F0100005E0C10601D5012F8E
:1005500070D100F00F00A873000607EB1050C0B276
:100560000026804644281DD009DC122811D02228FC
:100570000FD024280FD0B8F1420F20D109E048282D
:1005800010D0822805D084280CD0B8F1880F16D15D
:1005900008E0022007E0B3492E31881E00F0F6FA89
:1005A000040004D1687B00F0B3FD040007D0A87BF1
:1005B00002286ED004286DD008286CD1ECE06E853E
:1005C0004046B8F1340F22D022DC222831D010DC92
:1005D00014281CD007DC112874D012283BD0B8F1A5
:1005E000130F70D131E0182811D0B8F1210F6AD162
:1005F000ABE028280BD005DC232808D0B8F1240F65
:1006000061D149E0312822D0B8F1320F5BD1BFE08F
:1006100048285ED00FDC42287FD005DC38286FD018
:10062000B8F1410F4FD187E0432869D0B8F1440FAA
:1006300049D195E0F2E0A8F18100082843D2DFE833
:1006400000F07265A760A9A9A98F1324B9E08648B4
:1006500013240670B5E006F049FE287820B103F0B7
:1006600055FA040002D006E05124AAE0EE7200F030
:1006700077FB040004D0FF2C6FD0E87A20B105E0AE
:100680007A4981F800909CE000F08EFB03F076FA46
:1006900097E089E084E073E005F060FB040006D198
:1006A0007048EE72383000F039FB040004D0FF2CA3
:1006B00053D0E87A40B109E0288F05F0FBFA85F8BD
:1006C00002907EE04AE065E000F04EFB05F06EFF30
:1006D00077E005F02FFD040004D1EE7200F042FB3C
:1006E000040004D0FF2C38D0E87A18B104E085F873
:1006F000019066E000F05AFB05F086FF61E00CE037
:1007000046E000F053FB05F07FFF0AE000F04EFBEF
:10071000044605F079FFEE7294BB00F025FB05F06E
:1007200045FFEE724DE000F041FB044605F06CFF22
:10073000EE722CBB4FF0410800F016FB044605F0AA
:1007400035FFEE72E4B94FF0210803F017FA00F01C
:100750002BFB0446444806702AE047E042480670F6
:10076000BBF1000F02D0404600F03CF9A87A68B90E
:10077000A87B10F00C0F09D0E88D10B1022003E027
:1007800016E0A88D10B1032000F0AAFFFE2418E0A7
:10079000112416E0122414E000F008FB05F034FFE9
:1007A00000F0E2FA05F002FF162C04D00220A87334
:1007B000FF2C1BD005E003F0E1F900F0F5FA85F815
:1007C0000E90A87B00F00F01B94247D054EA0A010D
:1007D0002BD03843000728D5687818B100F0E6FA26
:1007E00005F012FFE88DD8B102201CE085F80C90CE
:1007F0004046A5F82A80B8F1120F07D0132805D07B
:10080000242806D0482804D0C82004E04FF4FA6019
:1008100001E042F2283080B232386882BDE8F09FB1
:10082000A88D10B1032000F0C2FD4CB1A87B0828B0
:1008300001D10420A873C0B240F01000A87306E0F4
:100840005FEA0A0002D0044647F01007AF732E7328
:10085000A87B2146BDE8F05F05F046BA2E73002163
:10086000F8E70000C8050020C80600209E0600200A
:100870002DE9F041594C207B00287CD0608A00256E
:1008800001270028608DA8461AD0122853D01328BB
:1008900051D0242876D048286DD1E07A00286AD03B
:1008A0006079002869D0B4F91800002863DDB4F934
:1008B0001A1088425FDCA4F81880A4F81A8083E03C
:1008C000C0F30716122806D0132804D024280DD010
:1008D000482846D114E0E07A08B900F065FA03F040
:1008E0004DF909E0258D3CE001253AE0E07A08B9B0
:1008F00000F03AFA05F05AFEA07A0028F4D0F1E7A9
:10090000607950B1A07910B1E07810B103E02D25E5
:1009100006E0E08D18B91A2502E0E08D18B11B251C
:10092000E07A18B104E0082667701CE000F03EFA97
:1009300005F06AFE15E0E07A00284CD084F80B80C0
:1009400000F00EFA38B1FF2845D000F02DFABDE8CE
:10095000F04103F013B92248077094F82A0000F020
:100960000F06002E37D084F80C800DB146F010062B
:100970002946304602E02EE004E020E0BDE8F041E8
:1009800005F0B2B9E07A002825D0144884F80B802D
:10099000383000F0C3F938B1FF281CD000F0E4F97A
:1009A000BDE8F04105F002BEA7700426DBE7FF2892
:1009B00011D000F0FBF9BDE8F04105F025BEE08D57
:1009C00010B1E078002806D000F0CCF90028EED174
:1009D00067700826C7E7BDE8F0810000C805002061
:1009E0009E060020704700002DE9F05F5F48DFF8A9
:1009F0008091604A0078A9F81A009080B9F81C002C
:100A0000D0801389A9F800305089A9F80200908994
:100A1000A9F80400108AA9F80800908A4946A9F8A4
:100A20000A00108B8881908BC881108C0882908C72
:100A30004882108D504C80B2A9F814004F4D218F80
:100A400011802978DFF838A15180DE0770D029B1F4
:100A5000590703D5002129700221518003F0C4FBFE
:100A6000AB4628780125E0BB3C214348FFF7F2FB69
:100A7000B9F808C0B9F80A704946BC4501D96046C2
:100A800000E03846A0618E89B04200D83046A061AF
:100A9000CB89984200D81846A0610A8A904200D8B3
:100AA0001046A061B9F81210884200D80846A0612B
:100AB000012835D04FEA5008C4F80880C4F80480F3
:100AC000C4F80080C4F81480C4F81080C4F80C8006
:100AD000C4F820C0C4E90D10C4E90B32C4E909769A
:100AE00000E002E0B9F80400E083B9F802202549EB
:100AF000B1FBF2F324490B604CF250339A4202D915
:100B00004FF4D2720A6099F80000800701D58BF883
:100B10000050DAF80000016841F0010101601CE0BA
:100B2000A5606560256065612561E560D0E7FFE748
:100B30003C211148FFF78EFBDAF80000016A41F210
:100B40001112114207D1016A9210114203D10168BA
:100B500021F00101016003F039FBB9F8001021F028
:100B60000101A9F80010BDE8F09F00001C0700205B
:100B70005E1000200C0600207C10002014070020CE
:100B8000D4070020406F4001180700202DE9F35FD3
:100B90004FF00008454644464746DFF8D4B01FE012
:100BA0000BEB4500408803F07BFC060023D0B069C6
:100BB000B0F8009000200FE000F1010A0AF0FF00F9
:100BC000314603F0D6FBB16901EBD000006857FA5B
:100BD00080F087B21FFA8AF04845EDD36D1CADB2A4
:100BE000BBF80010A942DBD8FF1D4FEAD70AB8F1C5
:100BF000000F04D02EE04FF0000A252036E0DFF889
:100C000070B000250BF1040B20E000BF0BEB45009A
:100C1000408803F045FC060026D0B0690788002014
:100C200010E000BF00F1010909F0FF00314603F0B8
:100C3000A0FBB16901EBD000006854FA80F084B2E7
:100C40001FFA89F0B842EDD36D1CADB2BBF80010AD
:100C5000A942DBD80099E41DE008088001994046CC
:100C6000A1F800A0BDE8FC9F002424208046F1E705
:100C70003806002030B50F4A00214FF4D054A2F1BD
:100C8000300312E002EB41056D88A5420BD11D88AF
:100C900020F8025B5D8820F8025B9D8820F8045BE9
:100CA000DD8820F8025C491C89B215888D42E9D89C
:100CB00030BD00003C06002030B5174B00211C88D9
:100CC00027E000BF03EB41025288B2F5B05F1ED1AE
:100CD000114A30F8025B2C3A158130F8025B5581DD
:100CE00030F8025B958150F8045B156150F8045BA5
:100CF000556150F8045B956150F80C5BD56150F874
:100D0000085C156250F8045C556205689562491CE0
:100D100089B28C42D6D830BD3806002010B50120EB
:100D200005F06CFA3C210948FFF794FA08480024C2
:100D30000480084804810848047002F0B7FC0748A2
:100D4000012104728172002010BD00007C1000207F
:100D50005E1000200C06002014070020D014002094
:100D6000002070470020704710B5002005F046FABB
:100D700003F02CFA3C210748FFF76CFA06490020E3
:100D800001220880054908700549088105490A7251
:100D9000887210BD7C1000205E1000201407002017
:100DA0000C060020D014002000207047002070475F
:100DB00030B5044600204FF6FF7505E0204600F0F0
:100DC00021F8002803D128342189A942F6D130BD69
:100DD0002DE9F0418846054600244FF48056074F20
:100DE00007E03146384601F060F8404600F0AAFEC0
:100DF000641CAC42F5DBBDE8F08100000004024059
:100E0000FEE7000030B500B3144B0022196849B169
:100E10000D890489A54215D90260196841600860EE
:100E2000186018E018604260026014E007D90A6890
:100E3000C0E900210A6802B1506008600BE04B680D
:100E400033B119460B89A342F0D14FF0010030BDF8
:100E50004860C0E900124FF0000030BD4C00002097
:100E600030B5064D2C6803E02089646800F0F0F886
:100E7000002CF9D10020286030BD00004C0000207B
:100E800010B50D4C206828B1002102F0A9FD00200A
:100E900020600CE04FF4807006F000FB040008D0E6
:100EA0000E220649FFF7BDF9204604F07DF9002027
:100EB00010BD072010BD0000C40500205010002008
:100EC00001480068704700004C00002002490020E3
:100ED0000860024908807047C4050020E40600202D
:100EE0002DE9F84F214F3C68002C3DD0DFF880A061
:100EF000204D214E9AF800000090DFF880B0DFF816
:100F000080802B689BF80010B8F800003268A0477A
:100F10000746FF2828D0DFF86C90002499F80000DD
:100F200001280DD0022804D003280CD004280FD1AA
:100F300009E01549086818B106F03AFA1248046049
:100F40000022114601E02A683168384604F05CFA54
:100F500089F80040A8F800408BF80040346003484E
:100F60002C608AF800400460BDE8F88FF406002089
:100F7000DA060020F0060020EC060020DB06002048
:100F8000E2060020D9060020F8060020084900B536
:100F90000020086001F55D70FFF70AFF002805D109
:100FA00003485DF804EB001DFFF702BF00BD000021
:100FB0004C00002010B51A482022002402804480F2
:100FC000446044F21F0184608181164BC0E90434FF
:100FD0008483046280F84040134802804480446067
:100FE00084608181C0E904348483046280F84040D5
:100FF0000E480470FFF7CAFF08B1FFF731FF0C4835
:1010000004700C4804700C4804800C4804700C48B0
:1010100004600C4804600C4804600C48046010BD77
:10102000C80F0020A08601000C100020C806002078
:10103000D9060020DA060020E2060020DB060020A8
:10104000EC060020F0060020F4060020F806002040
:101050000C4B196813E00A8982420FD1D1E90020B4
:1010600002B1506000B1026000220A604A601A6852
:1010700009891289914200D1186070474968002996
:10108000E9D170474C000020C188090B09290CD216
:10109000DFE801F00B09050909090909070003F058
:1010A00019BF04F081B80420704705207047000084
:1010B00038B5164C608EB0B10025ADF80050022254
:1010C0004FF48861684602F09EF9BDF80000C00741
:1010D00009D1E08D38B1607820B11B210420FFF7E1
:1010E0001DFA38BDE57060790028FAD060780028D4
:1010F000F7D0A07940B1E0790028F2D11A21BDE8FB
:1011000038400420FFF70ABA2C21F8E7C805002070
:101110002DE9F0475E4D06460024288E41F6FF710A
:10112000884202D21420BDE8F087002000F082FC43
:1011300042880188D30774D1CB0772D18379DB074A
:1011400023D08088C0F38103012B1ED180071CD5DA
:10115000222A1AD34FF48078424516D81F03B94289
:1011600013D34FF4005949450FD2012000F062FC1F
:1011700041880288CB0754D1D30752D18379DB074A
:1011800003D0808810F00C0F01D016247EE0800779
:10119000FBD52229F9D34145F7D8B8464245F4D3C7
:1011A0004A45F2D200274FF0010A032E2DD985F8C7
:1011B00009A0032000F03EFC014640880A88C307CE
:1011C0002FD1D3072DD18B79DB071BD028B1AB8D65
:1011D000984202D10BB1442801D91E2456E08888D8
:1011E00010F00C0FF9D1A97B022906D0E98E8A42B2
:1011F000F3D1800709D56F7207E04245EDD34A4528
:10120000F7D3EAE7A98D0843E7D1022E3BD90220A4
:1012100000F010FC014640880A88C30701D1D307BB
:1012200001D017207FE78B79DB0720D010B3EB8D3F
:1012300098421FD1F3B144281CD88888C0F381019B
:10124000012917D1A97B022907D0A98E8A4211D181
:10125000410607D585F804A005E042450AD34A4572
:10126000F6D307E02F7180070DD56F720BE0E98D83
:10127000084308D01D2409E0304600F0DBFBC0889D
:101280002882761CF6B2687B8642F5D320464AE770
:10129000C805002070B5204B1E4C03F1440241F6F6
:1012A0003246751C24889B89928902291DD003DC53
:1012B00001B301292CD104E0032921D0222927D10F
:1012C0000DE0B04202D11CB3980711E0A8421FD133
:1012D00090071DD5E4B91148008858B918E0A84214
:1012E00016D1900714D52CB912E0B04204D158079A
:1012F00000280DDA002070BDA84209D15007F7E799
:10130000B04201D11807F3E7A84201D11007EFE777
:10131000122070BDF6050020C80F0020F405002043
:1013200070B5092002F06DFF1D48417949B1C18BAC
:10133000002259B1838B8B4208D38271C17901B1EC
:10134000C271BDE87040092002F071BF838B8B42EF
:1013500001D25B1C838301218171438C23B1048CF6
:101360009C42EAD2641C04840E4B0F4D1C8D2D89C7
:10137000AC4208D2C171B0F918100029E1DD418BEF
:10138000491C4183DDE7C479002CDAD0C27183F8AF
:101390004010B0F918100029D3DD4283D1E70000D6
:1013A000C8050020C80F0020BC060020704738B5D3
:1013B0004FF48071ADF8001040F6060101EBC00457
:1013C00002222146684602F076F80222214668464B
:1013D00002F019F8BDF80000C005F6D538BD0000D0
:1013E0000948406818B909494888401C488008489D
:1013F000007830B10749B1F90000002801DD401E36
:101400000880FFF78DBF0000C80F0020B80500203E
:10141000D4050020DA050020F8B50025ADF800500D
:1014200002220421684601F0EEFFBDF800001C4CCA
:10143000000A022260730621684601F0E4FFBDF84D
:10144000000040F6FF7101EB8020208605F04EFF82
:10145000002604E03046FFF7AAFF761CF6B2607B58
:101460008642F7D302F034FAE5722573E5706570B1
:10147000A57025716586A583E583258465846571DE
:10148000A57225852587E585A5850120A073002106
:1014900004F02AFC65852572BDE8F840FFF716BD0B
:1014A000C80500202DE9FC4100260120ADF80460AC
:1014B000ADF8000002F004FB394F40F60E08387812
:1014C00020B102224146684601F09DFF02F04CF82F
:1014D0000446344DC0070FD0287B68B902224FF470
:1014E000907101A801F08FFFBDF8040024F01104F1
:1014F000C0B20021FFF712F8E0060FD5287B78B9BB
:10150000A87BC1060ED420F0100101290AD024F0D6
:10151000100400F00F000021FFF700F8287B08B14D
:10152000FFF7A6F93878002837D0BDF80000C007CB
:1015300005D1A87B002100F00F00FEF7EFFFA0050A
:1015400009D56E8718480222018816483A3001F002
:10155000B2FF02F0F5F9BDF80000144C80072078C6
:1015600001D508B113E090B102F01AFA20780028F2
:10157000BDF8000002D040F4007001E020F40070DB
:10158000ADF8000002224146684601F094FF01F0E8
:10159000EBFFC00501D502F0DDF8BDE8FC810000DD
:1015A0009E060020C8050020AA0600209F060020F5
:1015B0007047000010B586B000F06AFB00240948AF
:1015C000009400F0D9F90290012003900220CDE9A7
:1015D000040405A9684600F0C7FA00F011FB06B044
:1015E00010BD000000F80F084FF480620149024866
:1015F000FEF717BE00F80F08D01000202DE9F041CB
:10160000FFF7D8FF00F044FB0B4D0C4E00244FF4C5
:10161000007700BF05EB440006EB4401028800237D
:10162000012000F0F7FA641CA4B2BC42F2D3BDE87A
:10163000F04100F0E5BA0000D010002000F80F08DB
:101640000149085C70470000D010002070B50023ED
:101650000C4D0EE00C46491C2C5D5E0089B256EA2A
:10166000D31300D001232344521EDBB200F8014BF8
:1016700092B2002AEED1685C984201D1012070BD7F
:10168000002070BDD0100020014A115470470000A6
:10169000D010002070B500230A4D0EE05C0054EA23
:1016A000D31300D00123064611F8014B401C2344FC
:1016B000521EDBB280B2AC5592B2002AEED12B544E
:1016C00070BD0000D01000207047022000F004BB65
:1016D0007047042000F000BB7047082000F0FCBAFF
:1016E00038B50021ADF8001040F6060101EBC0044A
:1016F00002222146684601F0DEFE022221466846AB
:1017000001F081FEBDF80000C005F6D438BD10B56B
:10171000092002F081FD04F07FFFBDE810400920A0
:1017200002F09BBD10B5092002F076FD05F000F82F
:10173000BDE81040092002F090BD0000002229B150
:1017400001291AD002291BD04FF440720E490B68B0
:1017500023F440730B600B6813430B600A6822F09C
:10176000F8020A600A68022303EBC00002430A6021
:10177000086840F48030086070474FF48072E5E7F5
:101780004FF40072E2E70000103C02401348016889
:1017900089050FD5016821F400710160016841F4E9
:1017A00000610160016821F400610160016841F499
:1017B00000710160016849050FD5016821F480615D
:1017C0000160016841F480510160016821F4805199
:1017D0000160016841F4806101607047003C024093
:1017E00008490A6822F440720A600A6842F004025A
:1017F0000A600A684FF4803343EA002002430A601B
:1018000070470000103C0240064A136823F44073FE
:10181000136013681360136843F0010313600170D1
:1018200070470000103C0240084910B50C6824F4D1
:1018300040740C600C6844F440740C600C6844F014
:1018400001040C600260436010BD0000103C0240C7
:10185000074A136823F440731360136843F48073DA
:101860001360136843F001031360018070470000A8
:10187000103C0240074A136823F440731360136856
:1018800043F400731360136843F0010313600160B5
:1018900070470000103C024017490868C20617480C
:1018A00005D5C26942F01002C26110220A600A68BE
:1018B000920605D5C26942F00802C26120220A6080
:1018C0000A68520605D5C26942F00402C26140228C
:1018D0000A600A68120605D5C26942F00202C261B6
:1018E00080220A600A68920705D5C26942F0200288
:1018F000C2610220086070470C3C0240B80C002016
:1019000070B5114904460020C86100F0D7FA0646B8
:101910000E4D09E0601C07D024B100F0CFFA801B07
:10192000A04201D9032070BD2868C003F2D4286802
:10193000C00701D001202860286810F0F200F2D022
:10194000FFF7AAFF012070BDB80C00200C3C02403C
:101950000188428891420BD000EB8102491C9268B9
:1019600089B201808388994203D10021018000E07F
:1019700000221046704700000021A0F100634FF4E0
:10198000804293423FD321490144914201D2012137
:1019900039E01F490144914201D2022133E01D493F
:1019A0000144914201D203212DE01B490144B1F5CC
:1019B000803F01D2042126E0184942184FF400313B
:1019C0008A4201D205211EE0154A02448A4201D210
:1019D000062118E0134A02448A4201D2072112E08C
:1019E000114A02448A4201D208210CE00F4A024403
:1019F0008A4201D2092106E00D4A1044884201D2F0
:101A00000A2100E00B2108467047000000C0FFF7E4
:101A10000080FFF70040FFF70000FFF70000FEF72F
:101A20000000FCF70000FAF70000F8F70000F6F7F6
:101A30000000F4F74FF4006110B501EBC00108227B
:101A4000024801F0E0FC014810BD0000040600203F
:101A500070B52E4E2E492F4CB078896B25789CB0EE
:101A600001B385424FD160783C2120F001006070C5
:101A7000002020702648FEF7EDFB27480068016A29
:101A800041F21112114207D1016A9210114203D1A1
:101A9000016821F0010101601CB00020BDE8704028
:101AA00004F0ACBB3C210CA8FEF7D4FBE90741F2E3
:101AB000707000D11490A90700D41590690700D464
:101AC0001690290700D41790E90600D41890A906AB
:101AD00000D419907078ADF84E0040F2DC500B90B5
:101AE0002C2210A96846FEF79CFB0CAD95E80F0070
:101AF00004F004FD012004F081FB012020720103A9
:101B0000064800F0D2F91CB070BD00001C07002090
:101B10007C100020D0140020D407002000040240D4
:101B200090F83510022903D08021416501207047CB
:101B3000052180F835100068016821F0010101607D
:101B40000020704770B5044600F0B8F90546601CE7
:101B500002D004480078044400F0B0F9401BA042D1
:101B6000FAD370BD000000202DE9F047044622485A
:101B70000F46017E01290AD00121804601764CF2F0
:101B800050394846FFF7BCFE020003D02FE0022088
:101B9000BDE8F0874FF0FF3038602068174D01280E
:101BA00001D0A6681CE0207C6168FFF719FE48465A
:101BB000FFF7A6FE0246286820F00400286014E023
:101BC000217C3046FFF7BAFD4846FFF799FE020038
:101BD000286820F0FA00286001D03E6005E0761CFD
:101BE000D4E902100844B042EAD8FFF7CFFD002143
:101BF00088F818101046CBE7B80C0020103C0240C3
:101C00000348016841F00041016000207047000076
:101C1000103C02402DE9F0471B4E05461446307E2D
:101C20001F468946012808D0012030764CF25038F2
:101C30004046FFF765FE18B114E00220BDE8F087CA
:101C40009DB1012D16D0022D19D022463B464846A3
:101C5000FFF7EAFD4046FFF753FE0C490A6822F001
:101C600001020A6000213176E8E7E1B24846FFF759
:101C7000CBFDEFE7A1B24846FFF7EAFDEAE72146D0
:101C80004846FFF7F7FDE5E7B80C0020103C02409E
:101C9000074900200A68002A09DA054A054B0C3A70
:101CA0001360054B13600968002900DA01207047B2
:101CB000103C024023016745AB89EFCD022805D0D7
:101CC000042805D0082805D103F01EB8FFF71FBD72
:101CD000FFF728BD70470000044910B50A680242AA
:101CE00002D00860FFF7EAFF10BD0000143C01407D
:101CF0002DE9F84FDFF87CB100224FF001084FF0DA
:101D0000030A4FF00F090BF1040E00BF0B6808FA2D
:101D100002F42340A3426ED14D68022D01D0122D52
:101D20000ED1D50800EB850CDCF820505607F70ED5
:101D300009FA07F6B5430E69BE402E43CCF8206081
:101D4000066855000F790AFA05FC07F0030726EA32
:101D50000C06AF40374307604E68012E05D0022EB7
:101D600003D0112E01D0122E0ED18668CF6826EA3C
:101D70000C06AF40374387604668A6430C79C4F32E
:101D80000014944034434460C6688C6826EA0C060C
:101D9000AC403443C4604C68E40065D5364C2568DB
:101DA00045F480452560246822F0030504F480444E
:101DB0000094324C2E19D6F8084895072F0F09FACF
:101DC00007F5AC432E4DA84201D1002524E02D4D4E
:101DD000A84201D101251FE02B4DA84201D10225C7
:101DE0001AE02A4DA84201D1032515E0284DA8424A
:101DF00002D1042510E037E0264DA84201D1052587
:101E00000AE0254DA84201D1062505E0234DA84250
:101E100001D1072500E00825BD402543C6F8085834
:101E2000DBF800405D464E689C43F60300D51C433A
:101E30002C60DEF8004075464E689C43B60300D522
:101E40001C432C600B4D08352C684E689C43F602F1
:101E500000D51C432C60074D0C352C684E689C4304
:101E6000B60200D51C432C60521C102AFFF44EAF62
:101E7000BDE8F88F003C014044380240003001408A
:101E8000000002400004024000080240000C024032
:101E9000001002400014024000180240001C0240E2
:101EA0000069084000D00120704742694A40426101
:101EB00070470AB1816170470904FBE701488068F7
:101EC000704700000000002070B5040004D094F8B2
:101ED0003D00002510B106E0012070BD84F83C50A3
:101EE000204600F075F8242084F83D002068016841
:101EF00021F00101016000F07BFA33492268B0FB58
:101F0000F1F15160314A6368934206D94FF49673F8
:101F100059434FF47A73B1FBF3F12368491C1962FA
:101F2000616891420BD84900B0FBF1F2C2F30B0299
:101F3000042A01D2042019E0B0FBF1F016E0A368F6
:101F40009BB301EBC10202EB0112B0FBF2F242F4CF
:101F50008042120530D04BB301EBC10202EB0111FC
:101F6000B0FBF1F040F4804040F400402168C861CB
:101F7000D4E90701084321680860D4E90310084345
:101F800021688860D4E9050108432168C860206899
:101F9000016841F0010101602564202084F83D00C2
:101FA000256384F83E50002070BD00E006E001EBA0
:101FB0004102B0FBF2F2CCE70120D7E701EB41018F
:101FC000B0FBF1F0D0E7000040420F00A086010016
:101FD00000B500680E4987B0884217D14FF44060C1
:101FE0000090122001900120029003200390042011
:101FF000049069460748FFF77BFE0748016841F4F3
:1020000080010160006800F48000059007B000BD09
:1020100000580040000402404038024002488168F5
:102020000278114481607047000000200B4810B511
:10203000016841F400710160016841F48061016050
:10204000016841F480710160032000F097F80020DE
:1020500000F006F800F024F8002010BD003C02401B
:1020600070B50D4D04464FF47A712878B1FBF0F04D
:102070000A490968B1FBF0F000F018FD48B9102CCE
:1020800007D200222146501E00F058F800206C6054
:1020900070BD012070BD0000000000200C00002079
:1020A0001F4808B5016841F480410160006800F4F0
:1020B000804000901A48001F016841F08051016083
:1020C000006800F080500090032000F057F80022D4
:1020D00011466FF00B0000F031F8002211466FF04E
:1020E0000A0000F02BF8002211466FF0090000F002
:1020F00025F800221146501F00F020F8002211465A
:10210000101F00F01BF800221146901E00F016F878
:102110000022BDE808401146501E00F00FB8000034
:102120004438024000F01F02012191404009800024
:1021300000F1E020C0F8001170470000F0B40E4B31
:102140001B680C46C3F30223C3F10705042D00D915
:102150000425191D072901D2002300E0DB1E0126FA
:1021600006FA05F1491E214099409E40761E164010
:102170003143F0BC02F07CB80CED00E0064900F001
:10218000070208684FF6FF03184040EA0220034A9E
:1021900010430860704700000CED00E00000FA05F5
:1021A000F0B58BB004004FF0000556D0032084F842
:1021B000B903204600F054F8206805F059F804F1FE
:1021C000100128220F466846FEF72BF894E80F000E
:1021D00004F050FF0021206805F072F8012600206D
:1021E000C5EBC50104EB810181F8396001F8385F66
:1021F000CD80C8708860C8606D1C48610F2DEFD31A
:1022000000214FF4827300BFC1EBC10204EB8202D4
:1022100003EB810582F8F90182F8F811D18782F881
:10222000FB01C2F80002C2F80402C2F80C022268E4
:102230005051491C0F29E7D3282239466846FDF73B
:10224000F0FF94E80F0004F073FF84F8B96320688E
:1022500004F062FF00200BB0F0BD0120FBE700009E
:1022600000B5006887B0B0F1A04F1DD14FF4C05049
:1022700000900220019000200290032003900A2089
:10228000049069460948FFF733FD0948016841F0A9
:102290008001016006481030016841F4804101600E
:1022A000006800F48040059007B000BD00000240C7
:1022B000343802402DE9F0470E46050065D0DFF8BE
:1022C0001481D8F80000F7B200F00F00B04207D236
:1022D00088F80070D8F8000000F00F00B04254D128
:1022E00028683D4C810712D5400703D5206840F48B
:1022F000E05020602878000703D5206840F4604053
:1023000020602068A96820F0F00008432060287849
:10231000C0072DD0304968680839012812D002283A
:1023200013D0032811D00968890700292DDA216804
:1023300021F0030101432160FFF7C0FD814641F216
:10234000883A0EE009688903EFE709688901ECE73C
:10235000FFF7B4FDA0EB0901514502D90320BDE808
:10236000F0872068696800F00C00B0EB810FEFD1B6
:10237000D8F80010404601F00F01B14207D90770AC
:10238000006800F00F00B04201D00120E7E7287894
:10239000400705D52068E96820F4E0500843206034
:1023A0002878000706D52068296920F4604040EAB3
:1023B000C100206000F03CF82168084AC1F3031115
:1023C000515CC840064908600020FFF749FE002024
:1023D000C5E70000003C02400838024008750008CC
:1023E0000C00002001480068704700000C0000202D
:1023F0000448054900680968044AC1F38221515C18
:10240000C84070470C0000200838024018750008CA
:102410000448054900680968044AC1F34231515C27
:10242000C84070470C0000200838024018750008AA
:10243000154810B5006810F00C02144813D0411074
:10244000042A0FD0082A0ED10F4C241F22682368BB
:1024500002F03F025B0207D52068C0F38810A0FBA2
:10246000010106E0084610BD2168C1F38811A1FBF7
:1024700000010023FDF7A4FE2168C1F30141491CBE
:102480004900B0FBF1F010BD083802400024F40010
:102490002DE9F84F050076D02878DFF8F8B2BE4C69
:1024A000C00749D0DBF800105846C1F3810101296B
:1024B00008D00068C0F3810002280AD1201D0068FE
:1024C000400206D52068800336D568680028E2D02F
:1024D00032E06868B0F5803F10D0B0F5A02F2068DA
:1024E00010D020F480302060206820F4802020600C
:1024F0006868A0B1FFF7E2FC06460CE0206840F4F3
:102500008030F4E740F480202060F7E7FFF7D6FC46
:10251000801B642873D820688003F7D50CE0FFF790
:10252000CDFC064605E000BFFFF7C8FC801B642811
:10253000F0D820688003F7D42878DFF8608280071D
:102540004FF000093ED5DBF80010584611F00C0F93
:1025500009D00068C0F3810002280BD18D48001F0C
:102560000068400206D42068800715D5E868012875
:1025700009D111E0E868B8B10120C8F80000FFF700
:102580009DFC064605E002E1FFF798FC801B02284F
:10259000C0D820688007F7D52068296920F0F800A6
:1025A00040EAC10020600DE0C8F80090FFF786FC0B
:1025B000064604E0FFF782FC801B02281FD8206833
:1025C0008007F7D42878000722D5724E74486969CD
:1025D0006C3671B101210160FFF770FC074604E021
:1025E000FFF76CFCC01B022809D830688007F7D5BC
:1025F0000EE0C0F80090FFF761FC074605E083E0BD
:10260000FFF75CFCC01B02287ED830688007F7D437
:102610002878400768D5DFF87CA100270AF1380A3E
:10262000DAF80000C0000BD4DAF8001041F0805155
:10263000CAF80010DAF80000012700F0805000907E
:10264000584E3068C00510D4306840F48070306057
:10265000FFF734FC009005E0FFF730FC0099401ACA
:10266000022851D83068C005F6D54A4EA8686836A9
:1026700001280FD00528306810D020F0010030600C
:10268000306820F004003060A868B8B1FFF716FC8D
:1026900000900FE0306840F00100F4E740F00400E3
:1026A0003060F7E7FFF70AFC0099411A41F28830E1
:1026B000814264D830688007F4D50EE0FFF7FEFB56
:1026C000009007E0FFF7FAFB0099411A41F28830C9
:1026D000814254D830688007F4D42FB1DAF8001062
:1026E00021F08051CAF80010A869C0B3DBF80010CF
:1026F000C1F3810102294AD00228484607D0C8F810
:102700006000FFF7DBFB00E039E005463AE04746B2
:10271000C8F86000FFF7D2FB064604E0FFF7CEFBE7
:10272000801B02282BD820688001F7D4D5E9070147
:102730000843A96A1C4A490802EB01416A6A41EA56
:102740008211084395F82C1040EA01611148001FDE
:10275000016001203866FFF7B1FB054605E014E093
:10276000FFF7ACFB401B022809D820688001F7D591
:102770000BE000BFFFF7A2FB401B022802D9032099
:10278000BDE8F88F20688001F4D40020F8E701202C
:10279000F6E70000083802400038024000004742D7
:1027A000800E4742007000400000FFFF90F851008B
:1027B000704770B5040005D00025A56294F851005B
:1027C00010B106E0012070BD84F85050204600F0A2
:1027D00031F8022084F851002068016821F040019E
:1027E0000160D4E901010843D4E90312114308430D
:1027F00061690843218B01F400710843E1690843D2
:10280000216A0843A16A084321680860A06904217D
:1028100001EA1040616A0843216848602068C16984
:1028200021F40061C1616565012084F85100002038
:1028300070BD000000B500680D4987B0884215D111
:102840000C48016841F4004101600068694600F4E9
:102850000040059038200090022001900290032053
:102860000390062004900448FFF742FA07B000BD29
:10287000003C004040380240000402402DE9F84F7F
:10288000044690F8500000260A9F9A4693460D464B
:102890004FF0010801280ED0012084F85000FFF706
:1028A0000DFB814694F85100616801280CD0B1F508
:1028B000827F07D102E00220BDE8F88FA16809B944
:1028C000042801D00226BDE055B1BBF1000F07D0AE
:1028D000BAF1000F04D094F85100012802D004E0AE
:1028E0000126AFE0052084F8510000206065C4F89F
:1028F00038B0A4F83EA0A4F83CA02563A4F836A004
:10290000A4F834A02064606420680168490603D4F8
:10291000016841F040010160E068B0F5006F606857
:1029200004D0E8B3E08E01283BD06AE010B1E08E1D
:1029300001282ED1216835F8020BC860E08E401EB8
:10294000E08626E0B8F1000F0DD0E08E58B1206887
:102950008168890707D535F8021BC160E08E401EEB
:10296000E0864FF00008E08F58B120688168C90701
:1029700007D0C0682BF8020BE08F401EE0874FF0B5
:102980000108781C05D0FFF799FAA0EB0900B842BE
:1029900046D2E08E0028D5D1E08F0028D2D136E093
:1029A000FFE7216815F8010B0873E08E401EE086F2
:1029B00027E000BFB8F1000F0DD0E08E58B12068BD
:1029C0008168890707D515F8011B0173E08E401E49
:1029D000E0864FF00008E08F58B120688168C90791
:1029E00007D0C0680BF8010BE08F401EE0874FF066
:1029F0000108781C05D0FFF761FAA0EB0900B84286
:102A00000ED2E08E0028D5D1E08F0028D2D13B46EF
:102A1000012202212046CDF8009002F025FF08B1E6
:102A200003260FE04A463946204602F00DFF18B152
:102A300001262020606505E0A06818B92068C168FB
:102A400080680090012084F85100002084F8500034
:102A5000304631E74FF0E0210428086903D020F028
:102A600004000861704740F00400FAE710B500F078
:102A70003BFE0D4C207003F0FBFE28B1E18871B9DC
:102A80000A21E18060700AE0B4F9061039B130B96A
:102A9000491E08B2E080002801DA0020E080BDE88D
:102AA000104003F015BF0000D014002010B5401EE8
:102AB000B0F1807F01D3012010BD4FF0E0246061B0
:102AC0000F21601701F0D4FB0020A06107202061D6
:102AD000002010BD10B5FFF7C9FF10BD704770474B
:102AE00030B590F83820012A20D0012280F8382013
:102AF000022380F8393003685C6824F070045C605D
:102B000003685C680D682C435C6003689C6824F073
:102B100080049C6003689C6849680C439C6080F852
:102B20003920002180F83810084630BD022030BD21
:102B300010B5040003D094F8390010B107E001206B
:102B400010BD002084F83800204600F00DF8022067
:102B500084F83900211D206803F0F8FE012084F874
:102B60003900002010BD000008B51B4A01681B4851
:102B700091420ED1016841F0040101600068002219
:102B800000F00400009011461E20FFF7D7FA1E2027
:102B900010E0134A914211D1016841F0080101602F
:102BA0000068002200F00800009011463220FFF774
:102BB000C5FA3220BDE80840FFF7B4BA094881429F
:102BC00009D10648001D016841F4803101600068A8
:102BD00000F48030009008BD0008004040380240FA
:102BE000000C0040004001400168CA6842F0010248
:102BF000CA600068016841F001010160002070476F
:102C00000168CA6822F00102CA600068016A41F2E4
:102C10001112114207D1016A9210114203D10168C9
:102C200021F0010101600020704770B5044690F862
:102C30003800012817D0012584F83850022084F884
:102C400039002068826822F0770222F47F42826095
:102C50000868502837D00DDC202859D005DC88B30F
:102C6000102841D151E0022070BD302853D04028B7
:102C70003AD13FE060282ED070280BD0B0F5805FAD
:102C800003D0B0F5005F2FD110E02068816821F0FB
:102C9000070115E0CB68D1E90121206803F014FF9A
:102CA0002168886840F0770088601DE0CB68D1E932
:102CB0000121206803F008FF2068816841F4804109
:102CC000816011E01EE0CA684968206803F0C4FF13
:102CD0005021206806E0CA684968206803F0CDFFEB
:102CE0006021206803F0FAFE84F83950002084F84F
:102CF000380070BDCA684968206803F0ADFF402104
:102D00002068EFE700212068ECE710212068E9E760
:102D100020212068E6E730212068E3E7704770B59E
:102D20000446006801694FF00005C943890715D4BE
:102D3000C168C943890711D4E91E016101202076C9
:102D4000206880698007204602D0FFF7E7FF04E093
:102D500000F0DDF8204600F0B1F925762068016921
:102D6000C943490717D4C168C943490713D46FF051
:102D700004010161022020762068806910F4407F00
:102D8000204602D0FFF7CAFF04E000F0C0F820465A
:102D900000F094F9257620680169C943090716D423
:102DA000C168C943090712D46FF00801016104200A
:102DB00020762068C0698007204602D0FFF7AEFF6A
:102DC00004E000F0A4F8204600F078F925762068A9
:102DD0000169C943C90617D4C168C943C90613D4D8
:102DE0006FF010010161082020762068C06910F49E
:102DF000407F204602D0FFF791FF04E000F087F803
:102E0000204600F05BF9257620680169C943C907AF
:102E100008D1C168C943C90704D1891E0161204690
:102E200000F06AF920680169C943090609D4C1683C
:102E3000C943090605D46FF0800101612046FFF700
:102E40004DFE20680169C943490609D4C168C943D8
:102E5000490605D46FF040010161204600F054F9A5
:102E600020680169C94389060BD4C168C943890632
:102E700007D46FF0200101612046BDE87040FFF7E4
:102E80002EBE70BD00B50068094985B088420CD1DE
:102E90000420009002200121CDE9010103900320CC
:102EA000049069460348FEF723FF05B000BD00000B
:102EB000004001400000024070B5044690F8380020
:102EC00001280DD0012584F83850022084F83900FB
:102ED00042B1042A0AD0082A0CD00C2A11D10DE0E4
:102EE000022070BD206803F001FE0AE0206803F0B4
:102EF00029FE06E0206803F057FE02E0206803F098
:102F000083FE84F83950002084F8380070BD704783
:102F100010B5040003D094F8390010B107E0012087
:102F200010BD002084F83800204600F00CF8022084
:102F300084F83900211D206803F008FD012084F881
:102F40003900002010BD704710B50268044631B149
:102F5000042908D0082920D00C2908D121E0D06804
:102F600040F0020002E0D06840F00400D06001228E
:102F7000206803F04BFD0D492068884202D00C49BF
:102F8000884203D1416C41F40041416420680168EA
:102F900041F001010160002010BDD06840F0080040
:102FA000E4E7D06840F01000E0E7000000000140D6
:102FB0000004014070B5044690F838000D46012821
:102FC0000DD0012684F83860022084F8390042B11F
:102FD000042A18D0082A2AD00C2A4DD139E0022020
:102FE00070BD206803F082FD2068816941F008010E
:102FF00081612068816921F0040181612068816913
:103000002A69114311E0206803F09CFD2068816962
:1030100041F4006181612068816921F480618161EE
:10302000206881692A6941EA0221816124E02068DF
:1030300003F0BAFD2068C16941F00801C161206850
:10304000C16921F00401C1612068C1692A69114385
:1030500011E0206803F0D8FD2068C16941F40061E7
:10306000C1612068C16921F48061C1612068C169C2
:103070002A6941EA0221C16184F83960002084F89C
:10308000380070BD10B5040003D094F8390010B1B9
:1030900007E0012010BD002084F83800204600F031
:1030A0000CF8022084F83900211D206803F04EFC42
:1030B000012084F83900002010BD704770470000DF
:1030C00010B504460068012203F0A0FC08492068FE
:1030D000884202D00749884203D1416C41F4004143
:1030E00041642068016841F001010160002010BDC9
:1030F00000000140000401400249884201D1FEF76E
:103100006FB97047100800207047704770B50268AB
:1031100004461068D168536910F00F0F51D003F0C6
:10312000010501F4907635435DD0C20705D0CA058C
:1031300003D5E26B42F00102E263420705D5DA07EC
:1031400003D0E26B42F00202E263820705D5DA07A0
:1031500003D0E26B42F00402E263020705D5DA070E
:1031600003D0E26B42F00802E263E26B002A34D043
:10317000800604D5880602D5204603F0A6FD206807
:103180004069E16BC0F3801001F008010143204663
:1031900024D003F08CFD2068416949061AD54169A5
:1031A00021F040014161606BA0B11B490165606B7A
:1031B000FEF7B6FC002810D0606B016DBDE87040D2
:1031C000084783060FD58B060DD52046BDE8704015
:1031D00003F07BBD2046FFF798FF70BDFFF795FF1A
:1031E0000020E06370BD030606D50B0604D520461B
:1031F000BDE8704003F006BF4006F3D54806F1D5A0
:10320000D168204621F04001D160202184F8391096
:1032100000F0F8F870BD00009F6C000870B5040065
:1032200004D094F83900002510B106E0012070BDEB
:1032300084F83850204600F023F8242084F8390020
:103240002068C16821F40051C160204603F084FD6C
:103250002068016921F4904101612068416921F0F1
:103260002A0141612068C16841F40051C160E563F1
:10327000202084F8390084F83A00002070BD000056
:1032800000B50068124987B088421ED11148016814
:1032900041F0100101600068694600F010000590DF
:1032A000C020009002200190012002900320039092
:1032B000072004900848FEF71BFD00221146252038
:1032C000FEF73CFF2520FEF72DFF07B000BD0000F4
:1032D00000100140443802400004024090F83A30A7
:1032E000202B1DD1D1B1CAB190F83830012B17D0A5
:1032F00081628285C2850021C163222280F83A2042
:1033000080F8381001684A6942F001024A61006899
:10331000C16841F49071C16000207047012070477E
:103320000220704770B53449884263D1334C012183
:103330007F25207855280DD0AA280DD06178304DF2
:10334000012924D0A178812948D0852948D087290E
:1033500049D147E0617018E000206070A0788228B1
:1033600002D0832802D010E0E1700EE0552003F077
:10337000DDFF832003F0DAFF022003F0D7FF0220F5
:1033800003F0D4FFAA2003F0D1FFA5702BE00221A7
:10339000A0706170802804D084280AD0862822D1A9
:1033A00014E0552003F0C2FF802003F0BFFF28780F
:1033B00006E0552003F0BAFF842003F0B7FF6878D9
:1033C00003F0B4FFAA2003F0B1FF0CE0552003F096
:1033D000ADFF862003F0AAFFA878F1E7287002E08D
:1033E000687000E0A870BDE87040012203490248FF
:1033F000FFF774BF70BD0000880800201007002090
:103400001C07002070472DE9F04115460E4607467F
:103410004FF4805820E0464501D32C4610E0042D9F
:1034200001D9042400E02C46F00703D1B00705D5EC
:10343000E00701D0012403E0022401E0032CF9D0CD
:1034400072B622463146384602F03CF862B6281B76
:1034500085B23019274486B2002DDCD1BDE8F08159
:103460002DE9F04115460E4607464FF480581EE000
:10347000464501D32C4610E0042D01D9042400E078
:103480002C46F00703D1B00705D5E00701D0012491
:1034900003E0022401E0032CF9D0224631463846ED
:1034A00002F010F8281B85B23019274486B2002D8F
:1034B000DED1BDE8F0812DE9F04115460E46074604
:1034C0004FF4805820E0464501D32C4610E0042DEF
:1034D00001D9042400E02C46F00703D1B00705D53C
:1034E000E00701D0012403E0022401E0032CF9D01D
:1034F00072B622463146384602F09EF962B6281B63
:1035000085B23019274486B2002DDCD1BDE8F081A8
:103510002DE9F04115460E4607464FF480581EE04F
:10352000464501D32C4610E0042D01D9042400E0C7
:103530002C46F00703D1B00705D5E00701D00124E0
:1035400003E0022401E0032CF9D02246314638463C
:1035500002F072F9281B85B23019274486B2002D7B
:10356000DED1BDE8F081000010B572B602224FF442
:1035700008710348FFF774FF62B60148008810BD68
:103580009806002010B502224FF408710248FFF798
:1035900067FF0148008810BD98060020F8B5FEF7C7
:1035A00007F8002493264FF4017500BFADF80060C2
:1035B000042229466846FFF77EFFADF8004004224A
:1035C00029466846FFF71FFFBDF800009328EDD19C
:1035D00040F20111542002F065F801215C2002F054
:1035E00061F8582001F076FFADF80040042229462A
:1035F0006846FFF760FFFEF76FF8092000F022FE33
:10360000FEF762F8FEF764F8072000F01BFE0820C2
:1036100000F018FE0A2003F005FA322000F012FE36
:1036200062B60020F8BD000070B519480078002887
:1036300023D11848007800281FD0174A0021174CC2
:10364000958B17484FF08043012D17D04578012DF9
:1036500013D15B6A456843F609565B1B114D6B43FA
:103660004FF4FA6593FBF5F54388734305EB831339
:103670005360636041804160417070BD51609183CF
:103680006160A183418001214170596A416070BD30
:10369000CD050020D0050020C80F00200C10002010
:1036A000B805002040420F00FEE700000648002158
:1036B0000160416081603F2181700F21C170012153
:1036C0000172417270470000D014002010B54FF411
:1036D00000510448FEF7E9FBBDE810403C20FEF72E
:1036E00031BA00000004024070B5164D4FF400518D
:1036F0002846FEF7D5FB04464FF480412846FEF7E6
:10370000CFFB44EA40044FF400412846FEF7C8FBD3
:103710000D4D44EA800410212846FEF7C1FB44EA1F
:10372000C00420212846FEF7BBFB44EA0014012117
:103730000648FEF7B5FB44EA4010C1B20448807861
:10374000484070BD001002400008024000040240E2
:10375000D01400202DE9FC412F4C02226846A1899B
:10376000FFF751FEE07901270026012817D10A2032
:1037700003F094FE050012D02E606E602E810420AE
:103780002880A888002120F47060A880EF8007209E
:103790002881284600F024F9284603F009FEBDF8E8
:1037A0000000801D81B2ADF800106078A27910434E
:1037B00002D02770BDE8FC8126706089814201D962
:1037C000ADF8000003F06AFE20610028F1D0BDF8DA
:1037D0000020A189FFF717FEADF80460022240F631
:1037E000040101A8FFF70FFEBDF80400ADF80400C6
:1037F000BDF8040000050AD508480680A089618943
:1038000002220844801E81B20448FFF7FCFD2069B3
:1038100000F022F9CEE700009C06002002060020FE
:103820002DE9F84306462648007800F00F000128ED
:1038300007D0244CA07820B1607820B10720BDE8E3
:10384000F883F020FBE73588E189A81D804682B225
:103850003046FFF730FE0027ADF80070022240F638
:103860000C016846FFF7CFFDBDF80000ADF8000081
:10387000BDF80000000518D4207A1349401B801FB2
:10388000C0B20F80022807D228F00101C0F1020265
:1038900031440D48FCF7C5FCE08921890222084427
:1038A000801E81B20848FFF706FE606908B12761F3
:1038B00001E0064820610120666160700020BEE7DB
:1038C000D60500209C06002002060020600E002085
:1038D000F8B5194D2220002468814FF480702881AA
:1038E0000001A881E88115480A2140F60E060480EF
:1038F00044808180343802220480448081802C619D
:10390000AC616C61EC61EC70ADF80040314668462A
:10391000FFF779FDBDF80000022220F40070ADF839
:10392000000031466846FFF7C6FDAC706C702C7025
:10393000AC712C716C71F8BD9C060020940F0020B6
:1039400070B5154C00256570A06920B1E16911B909
:1039500003F02EFDA5616069A061E06918B1FFF771
:103960005FFFE56105E00D48FDF7F2FF08B1FFF7E5
:1039700057FFA07900280DD081070BD520F0020059
:10398000A0712069FDF77CFA002803D0A07940F0EF
:103990000200A07170BD00009C060020600F002096
:1039A00070B50E4CA5698DB16078002650B1E06904
:1039B00040B90120FDF7FBFC6069E0610120FDF7E3
:1039C0008FFE66702846FFF72BFFA661E07810B1E6
:1039D0000020E07070BD0120FBE700009C06002085
:1039E0002DE9F0410646194800270D46007800F001
:1039F0000F00012808D0B088154C20F47040B0802A
:103A00006179490703D004E0F020BDE8F08101218D
:103A10006171617940EA0130B0803046FFF700FF04
:103A200040B10C49304601F014FA070002D045F0CD
:103A3000800502E06079401C6071280604D5A179F8
:103A400005F07F000843A0713846DEE7D605002068
:103A50009C060020600F002070B5044681882288F3
:103A6000080B04250126B2F5807F06D9258021F4B4
:103A70007060A080E680082011E00F4910B10A793B
:103A8000904213D008710D49204601F0E2F9002858
:103A900011D02580A18821F47061A180E680208169
:103AA0002046BDE870400021FFF79ABF2046BDE8E0
:103AB000704003F07DBC70BD9C060020940F002078
:103AC00070B5042501260F48FDF742FF04000FD012
:103AD00000F018FB0028F6D02580A18821F4706141
:103AE000A180E680208100212046FFF779FFEAE7E8
:103AF00005480078002803D0BDE87040FFF72ABED3
:103B000070BD0000940F00209C06002070B50025B9
:103B10002846FDF78FFF184C418861810088A081FD
:103B20000120FDF787FF418821810088E081A2897B
:103B300063891344834204D90844904201D9162072
:103B400070BD0020FDF7CCFD0120FDF7C9FD6089A7
:103B500003F0A4FC206110B10021E17107E0012015
:103B6000E0710A2003F09AFC206100B9022503F0FD
:103B70001FFC284670BD00009C060020F8B5264CAE
:103B800000252846A570FDF712FC0120FDF70FFC6B
:103B9000A06908B103F00CFCE06920B1A16988427A
:103BA00001D003F005FC606938B1A169884204D0F6
:103BB000E169884201D003F0FBFBA5616561E56125
:103BC000E57040F60E06ADF8005002223146684618
:103BD000FFF719FCBDF80000022220F40070ADF8D8
:103BE000000031466846FFF766FC65702570A571D8
:103BF000257165710948FDF7ABFE08B103F0D8FBEC
:103C000006483438FDF7A4FE002803D0BDE8F8408C
:103C100003F0CEBBF8BD00009C060020940F0020EE
:103C20002DE9F04F724887B00025016841F010017E
:103C30000160016801F010010591016841F0040183
:103C40000160016801F004010591016841F0800103
:103C50000160016801F080010591016841F00101F6
:103C60000160016801F001010591016841F0020164
:103C70000160016801F002010591016841F008014D
:103C800001600068012200F00800059004215948F5
:103C9000FEF70FF9DFF860B1002233215846FEF736
:103CA00008F9012280215846FEF703F94FF4FC5829
:103CB000002241464F48FEF7FCF84FF440590122DC
:103CC00049464E48FEF7F5F84FF47C4A002251462B
:103CD0004B48FEF7EEF801240420CDE9000402264B
:103CE000CDE9024669464348FEF702F8454F0820F1
:103CF000CDE90007694602953E48FDF7F9FF062029
:103D0000CDE90007404F694602953846FDF7F0FFC0
:103D100033208DE83100694658460395FDF7E8FFEA
:103D20004020CDE90005694602945846FDF7E0FFC2
:103D30008020CDE90004CDE9024669465846FDF7EA
:103D4000D7FF3020CDE90005694602943846FDF7DB
:103D5000CFFFCDE90045694628480294FDF7C8FF2A
:103D600001AA0327CDF8008082E8B0006946214807
:103D7000FDF7BEFF4FF46040CDE9000569460294AF
:103D80001C48FDF7B5FF01AACDF8009082E870004D
:103D900069461A48FDF7ACFF01AACDF800A082E8F9
:103DA000B00069461648FDF7A3FF1E208DE86100AC
:103DB00069461348FDF79CFF002211460720FEF7D5
:103DC000BDF90720FEF7AEF9002211460820FEF7E4
:103DD000B5F90820FEF7A6F9002211460920FEF7E2
:103DE000ADF90920FEF79EF907B0BDE8F08F00009D
:103DF000303802400010024000000240000402403F
:103E0000000C024000002110000802400E4810B5CE
:103E10000C4901600D49416000214FF480428160EE
:103E2000C0E9031241618161C1610162FEF74CF892
:103E3000002805D0BDE81040422105A003F0A8BA33
:103E400010BD00000058004028070020A086010097
:103E50002E2E2F5372632F6932632E6300000000F1
:103E6000104810B50E4901604FF482714160002185
:103E70008160C1604FF400720161C0E90512C16147
:103E80000162416281620A21C162FEF792FC002850
:103E900005D0BDE81040452103A003F079BA10BD5C
:103EA000003C00407C0700202E2E2F5372632F739E
:103EB00070692E630000000010B524488EB02249BE
:103EC000016003210024C0E901144FF6FF71C0E92D
:103ED0000314FEF72DFE18B141211DA003F058FA7E
:103EE0004FF48050079007A91848FEF79EFE18B1BE
:103EF000472117A003F04CFA1448FFF709F818B14E
:103F00004C2113A003F044FA0B940BA90F480C9416
:103F1000FEF7E6FD18B153210DA003F039FA40F683
:103F2000FF70CDE90040022002900022694604940F
:103F30000648FEF7C1FF002803D05C2104A003F06F
:103F400027FA0EB010BD000000080040D407002082
:103F50002E2E2F5372632F74696D2E6300000000A4
:103F600010B5174886B01549016029210024C0E921
:103F700001144FF4FA61C0E90314FEF7D9FD18B13A
:103F80006D2110A003F004FA4FF4805000906946B0
:103F90000B48FEF74AFE18B173210AA003F0F8F9A6
:103FA000049404A906480594FEF79AFD002803D05E
:103FB0007A2104A003F0ECF906B010BD000C00401B
:103FC000100800202E2E2F5372632F74696D2E63FC
:103FD0000000000010B51E488CB01C490160532140
:103FE0000024C0E9011440F2CF71C0E90314FEF7C8
:103FF0009FFD18B18B2117A003F0CAF94FF4805030
:10400000079007A91248FEF710FE18B1912111A0E0
:1040100003F0BEF90E48FFF735F818B196210DA050
:1040200003F0B6F96020CDE900040294002269464D
:1040300007480494FEF7BEFF18B19F2105A003F0C6
:10404000A7F90348FEF71EFF0CB010BD0040014069
:104050004C0800202E2E2F5372632F74696D2E632F
:10406000000000000D4810B50B4901604FF4E1312C
:104070004160002181600C22C160C0E904128161AD
:10408000C161FFF7CBF8002805D0BDE810405B21E7
:1040900003A003F07DB910BD001001408808002086
:1040A0002E2E2F5372632F75736172742E6300006E
:1040B0000E4810B54FF0A04101600421416002227A
:1040C0000021C0E90321C0E90512C161016241621A
:1040D000C1620163FEF764F8002805D0BDE8104016
:1040E000452103A003F054B910BD0000C80800200A
:1040F0002E2E2F5372632F7573625F6F74672E635A
:10410000000000008188C1F30321032901D00220AF
:104110007047FCF7B9BF000010B5FDF77DF9FCF75B
:1041200049FF0449002001224880486048700A7015
:1041300010BD0000B805002070B51C4800780028AC
:1041400032D01B481B4C007808B1217821BB1A499A
:10415000097809BB012580B9FFF706FA410506D5A4
:1041600016482570007840B100F05EFE05E0144965
:10417000098811B9000500D525704FF0E0254FF4EE
:104180000074C5F88041FCF72FFC0E48007808B198
:1041900000F036FEC5F80041FDF784F9FCF7A0FEFB
:1041A000BDE87040FCF784BF70BD0000B80500207A
:1041B000D0050020CB050020CD050020C90500203A
:1041C000F6050020CA050020FEE700000249002095
:1041D00009684863704700004C080020002101482E
:1041E000FEF76EBF4C0800204FF4FA61884200D9F8
:1041F0000846024909684863704700004C080020DF
:10420000704700F01F02012191404009800000F139
:10421000E020C0F88011704700F01F02012191409A
:104220004009800000F1E020C0F88011704700F0E4
:104230001F02012191404009800000F1E020C0F8F8
:104240000011704700F01F020121914040098000D9
:1042500000F1E020C0F80011704700F01F020121BA
:1042600091404009800000F1E020C0F80011704743
:104270000907090E002806DA00F00F0000F1E0201F
:1042800080F8141D704700F1E02080F8001470479A
:104290006422B1FBF2F310B5047823440370B1FB40
:1042A000F2F302FB13110A22B1FBF2F34478234428
:1042B0004370B1FBF2F302FB13113031817010BD7A
:1042C0002DE9FF41908954691F460E00C0F3032079
:1042D00004D0072802D0092808D023E02046FBF7A5
:1042E000C4FF85B27FB32A46214629E001250DE0AF
:1042F000B54209D12046FBF7B8FF85B217B1002DB2
:10430000F1D10FE00C251EE06D1CADB22046FBF78D
:10431000ACFF0444641CB54204D82078FF2801D0C7
:10432000FE28E5D10C2577B10D2209496846FBF737
:1043300078FF31460DF10900FFF7AAFF0D2269460B
:104340003846FBF76EFF04B02846BDE8F081000058
:10435000C906002082890069C2F30322082A04D01A
:1043600001EB410100EB410070470029FCD0801DAA
:104370007047F0B58A8905004FF00000C2F30326AC
:1043800000D01020072E03D001224FF4187734E01C
:104390000020F0BD082E14D00B6902EB420403EBA1
:1043A000440423881F2B2BD00EDCA3F1030CBCF19B
:1043B000090F1BD2DFE80CF024341A2434341A1A03
:1043C00024000C69A41DECE7BB4219D006DC202BAD
:1043D00026D02E2B14D02F2B08D121E0A3F5007C62
:1043E000BCF1620C1CD0BCF1010F19D0AA4202D260
:1043F0006388184480B2521C92B2AA42CAD9F0BD56
:104400000F304FF6F07C00EA0C00AA42F3D20B2BDF
:1044100001D0BB4202D16388184480B21030E9E772
:104420001F304FF6E07C00EA0C00AA42E3D2A3F56D
:10443000007CBCF1620CDBD0BCF1010CD8D0203088
:10444000D8E72DE9F0418046202101FA08F18EB22B
:10445000FCF736FD034600251BE01889B0F5805FA8
:1044600016D3B8F1000F11D01F7B00240BE0E1B28E
:104470001846FFF76FFF8088304207D1641CA4B252
:10448000B8F1000F02D0BC42F1D901E06D1CADB211
:104490005B68002BE1D12846BDE8F0810A30704707
:1044A00010B50446FCF70CFD03E00189A14202D0DF
:1044B00040680028F9D110BDF0B59489C4F30320F9
:1044C000E5B20024022603B3072803D0082803D04E
:1044D000012012E00020F0BD906903781069008986
:1044E0005843C01DC0080CE000EB4007136906EB01
:1044F0004707401CDB5BC0B21C44A842F4D9E41D52
:10450000E0080029E7D1801CF0BD07280BD069B175
:10451000082810690CD001EB410106EB4101405A1B
:10452000C01DC008F0BD10694088F9E70120F0BD4A
:104530000089F5E72DE9FF5F8246202000FA0AF0A6
:104540001FFA80F808884FF4805BDFF880900E9D9A
:1045500014460E46584507D1FCF7B2FC030028D19B
:104560005DB31B20287028E0D9F8003020E05845C2
:104570001DD3BAF1000F12D01F7B00250CE0294695
:104580001846FFF7E7FE808810EA080F07D16D1C78
:10459000EDB2BAF1000F02D0BD42F0D907E00398A6
:1045A000198901800398801CA41EA4B203905B6843
:1045B0001BB11889012CDAD801E04FF6FF7030806A
:1045C000C9F8003004B02046BDE8F09F0C07002079
:1045D0002DE9FF4F0F46988983B0C0F30321994618
:1045E000109C904600F0FF0A3D46BB464FF48053B6
:1045F0000291072906D00398984203D3D9F81800EE
:1046000090F800A0119830B1072968D0039898421B
:1046100065D3D3461AE0574503D9112007B0BDE84A
:10462000F08F29464846FFF795FE808870B1BD4956
:10463000097801F00F0200F00701B2EB410F05D934
:10464000400701D01A20E9E70620E7E7D9F81C6007
:104650003EB1119800902346424639460398B04730
:10466000DCE70398B0F5805F3AD2BFB348463946DD
:10467000D9F81830FFF76EFE4088C01DC20803EB62
:10468000870050F8041CC8071DD00023C1F34E005A
:1046900040000AE030F8021B090A218005785B1C03
:1046A00041EA052124F8021B9BB2B3EB520FF1D370
:1046B000D10707D0218801F47F412180008841EA99
:1046C0001020208028E131F8020B208031F8020B05
:1046D0006080201D121FFBF7A4FD1DE100E0E1E05A
:1046E0004FF00008CDF8048010E1D9F818600023DD
:1046F00045B10398B0F5805F04D3E8B24946FFF7AF
:1047000038FE0346180906EB40000090E9B248461F
:10471000FFF720FE06468348007800F00F0130794D
:1047200000F00700B1EB400F7DD8BD4204D01198D6
:10473000002807D0BD4205D32DB90298072802D022
:1047400024F802ABE0E03088B0F5E06F0DD371885B
:10475000082902D82F3188B207E0102902D0202979
:1047600002D002E0062000E007201F2875D012DCEE
:1047700071D2DFE800F03A4848727748727777954F
:104780009595ABABABABAB82ABABAB82ABABABABF7
:10479000AB82ABAB4800342835D012DC302832D0A5
:1047A00008DC20285ED02D282DD02E2855D02F288B
:1047B00051D157E0312826D0322824D033284AD18D
:1047C00021E0B0F5187F6BD006DC35281BD03628E9
:1047D00019D037287AD116E0A0F5007061385FD083
:1047E00001285DD0022871D15AE0119898B37088E1
:1047F000010703D0C118090700D1A41CC0F303109E
:1048000004EB40045FE07088474903F00F0231F881
:104810001000904081B20098B0F80080180700D1D5
:104820002080208800E053E0DDF844C008EA010859
:10483000BCF1000F03D040EA0800208005E028FA10
:1048400002F848EA0008A4F80080B078184400078D
:1048500039D1A41C37E039E0FFE7180722D10098CE
:10486000008807E018071DD10098008824F8020B83
:104870000098408824F8020B25E0180712D1009810
:10488000008824F8020B0098408824F8020B009856
:10489000808824F8040B0098C08824F8020C12E0E9
:1048A000180701D00520B9E670880099C01DC2081C
:1048B0002046FBF7B6FC7088010904EB41040007B1
:1048C00001D0207820804FF001081DE01820A5E6D7
:1048D0000020190700D1218071880A0704D01944EB
:1048E000090701D124F8021F002103E0401C24F82D
:1048F000021FC0B2B278C2F303128242F6D83079F6
:1049000040070BD01A2001906D1CADB25D457FF6BB
:10491000ECAEB8F1000F03D000207FE60620F2E7EE
:1049200001987BE6D60500204E7B00082DE9FF4F5D
:104930000C460E4699898FB08146C1F3032AC9B24D
:1049400006910020A9F5D0511F46DDF8708025465C
:10495000A9F5B0530A90A1F5047B0191BAF1070FB4
:104960000FD0B869007810F0FF000AD1BBF11F0F1B
:1049700006D94FF40072934202D30199914200D2BA
:1049800006981D9959B1BAF1070F7BD00EB10546B3
:1049900021E0119909B198F8000005462CE0864203
:1049A00003D9112013B0BDE8F08F31463846FFF728
:1049B000D1FC80880E2101EA9002D049097801F0EB
:1049C0000F018A4206D210F0380F01D01A20E9E711
:1049D0000720E7E786B1BBF11F0F06D94FF400703F
:1049E000834202D30199814206D2B869007810F05F
:1049F000FF0F01D001200A90D7F820C0BCF1000FB2
:104A000007D01D980090434631464846119AE0472A
:104A1000C8E70020029007200C9011980028C1D010
:104A200063E1B8690090E1B23846FFF793FC059066
:104A3000E0B23946FFF79DFC8646059881880E2036
:104A400000EA9101AD48007800F00F00814270D378
:104A50002CB100984FEA1E1100EB41000090B442C7
:104A600004D01D98002874D0B44272D36CB9BAF146
:104A7000070F0AD0B8F80010069AC8B2824202D2D4
:104A800013208FE708E10098CDE005980088B0F585
:104A9000E06F0ED305994988082902D82F3188B2D2
:104AA00007E0102902D0202902D002E0062000E011
:104AB00007201F287ED012DC7BD2DFE800F03B4BC2
:104AC0004B7BB64B7BB6B6EAEAEAFDFDFDFDFDD4B5
:104AD000FDFDFDD4FDFDFDFDFDD4FDFD4B003428A5
:104AE00038D012DC302835D008DC202805D02D281D
:104AF00030D02E285ED02F285BD196E0312829D0E7
:104B0000322827D0332854D124E0B0F5187F0FD0B5
:104B100006DC35281ED036281CD0372849D119E0AC
:104B2000A0F50070613803D0012801D0022840D1DF
:104B3000AFE0C3E01D98E0B305984088010705D0B9
:104B400000EB0E01090701D108F10208C0F30311BF
:104B5000AFE0C8E005980EF00F03DDF874C041889F
:104B6000674830F8111001FA03F082B2009800880B
:104B70009043BCF1000F04D0B8F80010114001437D
:104B800008E0B8F8002032EA010C31D10A409A401E
:104B9000024391B2009801800598817801EB0E00E4
:104BA000000702D108F102008046012002909AE03D
:104BB00000E081E05FEA0E706ED1B8F8000001906D
:104BC0000A9820B100980188019881423ED1BBF13A
:104BD0001F0F0FD801984FF40071A0F5B050884214
:104BE00008D30198A0F5D050884203D3019808B1AA
:104BF0001220D7E6A9F5E051323901D0491E10D173
:104C0000012C0ED1009801880198814206D00146FE
:104C10004846FCF73FFB0C900028EAD139490120B7
:104C20000870DDE900010180BCE75FEA0E7033D156
:104C30000A9868B100980188B8F80000814205D14F
:104C400000984188B8F80200814201D01C20A9E6F2
:104C50000098B8F8001001800098B8F80210418060
:104C600008F10400A0E75FEA0E7015D10098B8F8CB
:104C7000001001800098B8F8021041800098B8F840
:104C8000041081800098B8F80610C18008F108006F
:104C90008AE75FEA0E7001D0052083E60598414659
:104CA0004088C01DC2080098FBF7BBFA05984088F1
:104CB000010908EB410077E7182073E644B1059835
:104CC0004088010709D000EB0E01090703D004E07A
:104CD00008F1020004E008F10208010908EB4100B4
:104CE000804618200C90641CA4B2AC427FF699AEAA
:104CF000029808B1002055E60C9853E6D60500202E
:104D00004E7B0008C80600202DE9F04130480078AD
:104D100000285BD0FEF736FC07462E4C2E4E2F4D5A
:104D2000400525D52E48007828B12E48007810B1CE
:104D30002D4900200880288D08B1401E2885FEF7E7
:104D400073FC2A49012008702948007810B100F04E
:104D50006BF80DE0022221882648FEF781FB2088AF
:104D6000318802220844801E81B22248FEF778FB77
:104D7000380503D5308808B9FEF756FC6888012845
:104D800001D1FBF731FE1C481C4F007830B1788808
:104D9000012801D0222801D100F032F8FEF7F2FB01
:104DA000400513D5688D0222401C688578852188CE
:104DB0001048FEF755FB20883188BDE8F0410844D3
:104DC000801E81B202220B48FEF74ABBBDE8F0818B
:104DD000D0050020FC050020F6050020C80F0020AB
:104DE000CE050020CD050020DC050020CB050020ED
:104DF000C905002002060020CA0500200C10002072
:104E000010B50648FBF736FF0548028805480188BB
:104E1000BDE810400148FEF77BBB00001C0D0020E0
:104E2000F4050020FE050020064810B5028806485B
:104E300001880648FEF714FBBDE810400348FBF765
:104E40003BBF0000F6050020FC050020D80C002028
:104E5000704710B54B888C885A1C92B2944200D18E
:104E600000220C88944201D1072010BD01EB83037E
:104E700098604A80002010BD10B50020FCF7E0FBD0
:104E8000022801D0002010BD032201210348FCF7B5
:104E9000DDFB0028F7D0012010BD00001C0700201A
:104EA00038B504464FF40175022229466846FEF7DC
:104EB000AAFABDF800002040ADF800000920FFF775
:104EC000A0F9022229466846FEF7F5FA0920FFF705
:104ED000AEF938BD2DE9F04F87B00446018900884E
:104EE0000090AE48002601F0FF09007809F0E00BC1
:104EF000B046B246354618B1092007B0BDE8F08F7C
:104F00005FEA0B0006D0202805D0402803D0BBF173
:104F1000600F7DD124E160894FF6FF7202EA002222
:104F200002EB112189B2000ACDE902010846FFF720
:104F3000B7FA049000286CD0DDE90210002709F0D0
:104F400010030197049AFFF7B7FA824604F10C00A8
:104F5000011D55460591BBF1400F05D009F0020136
:104F6000BBF1200F19D03DE000990A2933D1294621
:104F7000BAF1040F07D8BAF1000F04D00021018064
:104F8000074641802EE086480588103D8D4202D2BA
:104F90000120019026E0059F24E041B100990A29F3
:104FA00019D1C9F38101C1F1040507461AE0A089AE
:104FB000E18900EB01457B4805F110010088814241
:104FC00004D90099801F814205D106E0009805F1BF
:104FD0000A01884201D008208FE70098059F0A380F
:104FE0008542D5D85FEAC96004D502984FF0010820
:104FF000012834D8019870B3684F01207871387255
:1050000087F80680039838820298F871049801E0C6
:10501000B7E0A3E03863BBF1400F19D0FD62386AF6
:1050200018B102F0C5F900203862F86A401C20F07F
:10503000010002F033FA386270B1BBF1400F12D0B8
:10504000009A05990A3A1546FBF7EBF800201DE097
:10505000C7F82CA0E3E738E0B8F1000F01D005262F
:1050600090E004268EE0CDE90008DDE9021052460A
:10507000049BFFF7ADFA060002D0FF2E09D006E030
:105080002A46396A0598FBF7CCF860203871BD6272
:1050900078E00420787087F802800298F87003980E
:1050A0007881C7F814A0386AB861049809F0F00153
:1050B000C069F861012038707C62208920F0FF000F
:1050C000084320816020387165E0BAF1000F06D1F5
:1050D0003248039901820299C17104990163CDE9B3
:1050E0000078049BBBF1400F08D0DDE902102A468E
:1050F000FFF71CFC0646FF2818D043E0DDE902104C
:105100005246FFF765FA0646FF283BD123480321A4
:10511000417080F802800299C17003994181C0E911
:1051200005A70499C969C16101210DE01B4801214E
:10513000417080F80280029AC270039A4281C0E9ED
:105140000557049A126AC26101704462208909F00D
:10515000F00120F0FF00084320811CE0082611E048
:105160000E4909798B450CD1BBF1000F204605D0C3
:1051700000F014FD0646FF2804D10CE000F0C0FB4F
:10518000F8E70326CDE900A4ABB209F010025946B6
:10519000304600F0A7FC0020AFE60000D806002053
:1051A000A4060020A60600202DE9F04F89B00026B5
:1051B00004468DF81460007A8D4F00F07F050220C0
:1051C00006902088DFF82C924FF48058052D05D0EA
:1051D000082806D2062009B0BDE8F08F0A28F9D3C6
:1051E0006AE0012D03D0032D66D00320D7E0A0890B
:1051F000052860D8C5B20E2221467F48FBF711F87A
:10520000681E00F0FF0A0ED2A9F80C60002528469F
:10521000FFF717F904EB45016D1CEDB2C881052DB0
:10522000F5D3122032E0B9F80C004D4648B1398868
:1052300004F10C030C398AB2E989ADF80410401E60
:1052400014E05046FFF7FDF8ADF80480398804F10A
:105250000E030E398AB2B2EB400F09D2911C89B20B
:10526000C2EB40000844401E90FBF1F0A88100E032
:10527000AE8105A8009001A95046FFF75BF9BDF883
:105280000410E9813988081A801F80B220809DF8B7
:105290001400002874D1208920F07F0040F0020023
:1052A0002081B9F80C106181002904D040F0800001
:1052B00020818220069085E0A089ADF80400404559
:1052C00001D205206BE0FFF7EBF85FEA000A7CD023
:1052D000032D1ED094F80E805046FFF7DFF880783B
:1052E000414680455AD85046FFF734F8016821619D
:1052F0008088A082A07BE0815046FFF7CFF84088ED
:1053000004F1160BC0F30320082820D009281ED072
:1053100020E0FFF7C3F80068C4F80E0000235246EF
:105320001946BDF80400FEF7CBFF39880C3080B277
:10533000891F884201D90C202CE004F11203524647
:105340000021BDF80400FEF7BBFF0C3021E0B8F1EE
:10535000000F0ED0002352464146BDF80400FEF770
:10536000AFFF3988103080B2891F884209D91020D8
:1053700010E00D2221495846FAF753FF1C2009E09E
:105380000FE05B4652464146BDF80400FEF798FF29
:10539000103080B29DF81410F9B102E011208DF8A0
:1053A00014000A202080208920F07F0040F00700B0
:1053B0002081668112489DF8141050F82100E060A9
:1053C000A9F80C602046069900E00FE0FEF708FB04
:1053D00008B10C4804600020FDE666812080208929
:1053E0006D1C20F07F0028432081EBE70820D6E7E2
:1053F000A4060020D806002050100020C906002076
:10540000707B0008C40500202DE9FC47204C814634
:105410000026207813460D46002837D0D4F824C043
:105420009CF8080000F0E00800F01007B8F1400F09
:1054300021D118480088103886B22046406A1030C2
:10544000AE420DD2012161712172A7716021E56226
:105450002171324619462362FAF7E3FEA6620AE09A
:10546000691E032901D80CF10C00834203D02A469F
:105470001946FAF7D6FE00202070606A3346CDE95F
:1054800000503A464146484600F02CFBBDE8FC87F8
:10549000D8060020A4060020002001F051BF10B55E
:1054A000FFF7FAFF60F30704FFF7F6FF60F30F243E
:1054B000FFF7F2FF60F31744FFF7EEFF60F31F649E
:1054C000204610BDB1F5805F01D300F031B8D2B2F3
:1054D00000F0A0B870B5154D0646002204212846FC
:1054E000FCF7E7FC0B2001F02BFF300A01F028FF4E
:1054F000F0B201F025FF012001F022FFFFF7CCFF01
:1055000060F30704FFF7C8FF60F30F24FFF7C4FF41
:1055100060F31744FFF7C0FF60F31F64012204210A
:105520002846FCF7C6FC204670BD00000010024073
:105530002DE9F8430D4607464FF080414FF443787C
:10554000144600264046009100F0ACF84046FFF7B4
:10555000C1FF00909DF803000006F7D4ADF800509D
:10556000ADF802404FF44270009900F09BF84FF004
:1055700000414046009100F095F84046FFF7AAFF31
:1055800000909DF80000C007F7D00420FFF7A2FFAD
:10559000009005F00300C0F10401A14200DD2146A6
:1055A000CDB20DEB0001B8192A46FAF73AFE601B9E
:1055B00084B27019DFF85880C5B200220421404639
:1055C000FCF777FC0B2001F0BBFE042000F04EF846
:1055D000012001F0B5FE12E00420FFF760FF00900B
:1055E000042C01D9042000E02046C6B278193246C6
:1055F0006946FAF716FEA819C5B2A01B84B2002CA2
:10560000EAD1012204214046FCF753FCBDE8F883AF
:1056100000100240F8B50546002000908DF80010FB
:10562000080A8DF801008DF80220C0208DF80300D3
:105630004FF4417614463046009900F033F8304676
:10564000FFF748FF00909DF803000006F7D44FF4E1
:105650004070FFF73FFF00900021684603E0425C86
:105660006A54491CC9B2A142F9D3F8BD10B5044629
:10567000000A01F065FEE0B2BDE8104001F060BE36
:1056800010B50446C0B201F05BFEC4F3072001F080
:1056900057FEC4F3074001F053FE200EBDE8104052
:1056A00001F04EBE70B5134E05460C460022042193
:1056B0003046FCF7FEFB022001F042FE280A01F012
:1056C0003FFEE8B201F03CFEE0B201F039FEC4F367
:1056D000072001F035FEC4F3074001F031FE200E33
:1056E00001F02EFE3046BDE8704001220421FCF797
:1056F000E0BB0000001002402DE9F8430D460746CC
:105700004FF000094FF080414FF4457814464E4663
:1057100040460091FFF7C6FF4046FFF7DBFE0090D2
:105720009DF803000006F7D4ADF80050ADF8024034
:105730004FF444700099FFF7B5FF4FF00041404629
:105740000091FFF7AFFF4046FFF7C4FE00909DF8C1
:105750000000C007F7D005F00300C0F10401A1422A
:1057600000DD2146CDB2C846B91968442A46CDF8B5
:105770000090FAF756FD20200099FFF793FF601B79
:1057800084B27019DFF85490C5B200220421484653
:10579000FCF78FFB022001F0D3FD2020FFF766FF0E
:1057A00013E0042C01D9042000E02046C6B2791988
:1057B00032466846CDF80080FAF733FD0098FFF7CF
:1057C0005FFFA819C5B2A01B84B2002CE9D1012249
:1057D00004214846FCF76DFBBDE8F8830010024049
:1057E00038B50C4600210B4600911546694603E08A
:1057F000C25CCA545B1CDBB2AB42F9D34FF44070BD
:105800000099FFF74FFF8DF80040200A8DF8010046
:105810008DF8025080208DF803004FF4417420462B
:105820000099FFF73FFF2046FFF754FE00909DF8D8
:1058300003000006F7D438BDB1F5805F01D3FFF750
:105840005BBFD2B2FFF7CCBF38B50B46009204461F
:105850000022802100F008F8002804D0606D40F09C
:1058600020006065032038BD2DE9F0411D46174634
:105870000E460446DDF8188035E0681C33D02DB1A3
:10588000FCF71CFBA0EB0800A8422CD32068416861
:1058900021F0E00141606068B0F5827F0BD1A06823
:1058A000B0F5004F02D0B0F5806F04D120680168D8
:1058B00021F040010160A06AB0F5005F0AD12068C4
:1058C00001684DF6FF72114001602068016841F4E3
:1058D00000510160012084F85100002084F850003C
:1058E0000320BDE8F0812068806836EA000004D01B
:1058F0000020B842C1D10020F3E70120F9E770474A
:105900002DE9FC47DFF8D49106460389002799F872
:10591000080003F010013D46814201D10127B3E0A8
:105920006F48008889F808100938D9F8201082B229
:10593000484600297CD0D0E90A4CA046ACEB0404D0
:105940005FEAC37C4FF0010A11D0944213D8328829
:10595000D21E944205D8C3F3420CCCF1070CA445E7
:1059600003D0072C07D9944205D1457106E080F891
:1059700005A0944201D80E2786E0144657485FEAF6
:10598000C872806A20F0010018D00A5C0A52B6F88A
:1059900008C0D9F828000CF47F4C20F0010042EA3E
:1059A0000C020A52D9F82800621E20F001000844B7
:1059B00006F10A01801CFAF734FC1BE0B27A1B0ADC
:1059C00043EA02230B520120621CD9F828C00EE0E2
:1059D00006EB4003B3F808809B7A4FEA182848EAA0
:1059E000032300EB5C08401C21F8183080B2B0EBB8
:1059F000520FEDD399F80500C846E8BB98F8062089
:105A0000D8F82010CDE900124046D0E90B2398F8D1
:105A10000710B8F81000FEF789FF0746FF2808D0E6
:105A2000D8F8200001F0C4FCC8F8205027B32BE0C0
:105A300029E0022088F8010098F8060088F80200A2
:105A400098F8070088F80300B8F81000A8F80A00D2
:105A5000D8F82C00C8F81400D8F82000C8F81800AE
:105A6000D8F830004246006AC8F81C0088F800A048
:105A7000C8F82460557100E014E01571FF20C8F8E3
:105A80002850BDE8FC87032789F8055089F80450A1
:105A9000D9F820004C4610B101F08AFC2562A562BD
:105AA0003846EEE70A203080F08820F4704040F459
:105AB0004050F08098F80810404609B1302100E0CD
:105AC000202131814179012903D0856288F8045071
:105AD000E6E7816A2144C8F82810E1E7D8060020EB
