:020000040800F2
:10000000E81C00209D0100081D540008C94100089B
:10001000A5530008B1130008A988000800000000DB
:10002000000000000000000000000000536E000807
:10003000611900080000000085600008ED7C0008E0
:10004000B7010008B7010008B7010008B7010008B0
:10005000B7010008B7010008B7010008931C0008A9
:100060009B1C0008A31C0008B7010008B70100088A
:10007000B7010008B7010008B7010008B701000880
:10008000B7010008B7010008B7010008B701000870
:10009000B7010008B7010008B7010008B701000860
:1000A000B7010008B7010008B7010008B701000850
:1000B000B7010008B7010008817E0008B7010008F9
:1000C000B7010008B7010008B7010008B701000830
:1000D000B7010008F1850008B7010008B701000862
:1000E000B7010008B7010008B7010008B701000810
:1000F000B7010008B7010008B7010008B701000800
:10010000B7010008B7010008C97E0008B701000860
:10011000B7010008B7010008B7010008B7010008DF
:10012000B7010008B7010008B7010008B7010008CF
:10013000B7010008B7010008B7010008B7010008BF
:10014000B7010008B7010008B7010008B7010008AF
:10015000B7010008B7010008B7010008B70100089F
:10016000B7010008B7010008B7010008B70100088F
:10017000B7010008B7010008B7010008000000003F
:10018000B7010008B7010008DFF80CD000F036FB1B
:10019000004800470D970008E81C002006488047EB
:1001A00006480047FEE7FEE7FEE7FEE7FEE7FEE75C
:1001B000FEE7FEE7FEE7FEE7A17D000889010008F3
:1001C0002DE9F05F0546002092469B46884606468C
:1001D000814640241BE0284641464746224600F01F
:1001E00022F953465A46C01A914110D31146184677
:1001F000224600F009F92D1A67EB01084F46224606
:100200000120002100F000F917EB00094E41201EEB
:10021000A4F10104DFDC484631462A464346BDE8E6
:10022000F09F40EA01039B0703D009E008C9121FB1
:1002300008C0042AFAD203E011F8013B00F8013BA0
:10024000521EF9D27047D2B201E000F8012B491ECC
:10025000FBD270470022F6E710B513460A46044663
:100260001946FFF7F0FF204610BD421C10F8011B95
:100270000029FBD1801A70472DE9FE4F81EA030463
:1002800004F0004421F0004100944FF0000B23F0F3
:10029000004350EA01045ED052EA03045BD0C3F38A
:1002A0000A54C1F30A552C44A4F2F3340194A0FB80
:1002B0000254C1F3130141F48011C3F3130343F457
:1002C000801301FB024400FB034E840A970A44EAB0
:1002D000815447EA8357A4FB076802958D0A05FB02
:1002E00007854FEA932C04FB0C542705029D4FEA27
:1002F000065847EA1637B5EB08056EEB070C870E74
:10030000920E47EA811742EA8312A7FB0201B6EB7D
:100310000B0164EB00042B0D43EA0C335E1844EB35
:100320001C50DA465146E7FB0201C5F313044FEABD
:100330000B3343EA14534FEA0432019C43EA0603A9
:10034000A4F10C040294009CCDE900B400F0C1F8C3
:1003500003B0BDE8F08F00200146F9E70EB5C10FEC
:1003600080EAE0700844CA07002140F233438DE878
:100370000E000A460B4600F0ACF803B000BD00F0DA
:10038000004230F000400AD0C10D01F56071C0F3A9
:10039000160042EA0151C20840071143704700208D
:1003A0000146704701F0004330B421F0004150EAAB
:1003B000010206D00A0DA2F56072C1F31301002AF2
:1003C00002DC30BC00207047440F44EAC104C10085
:1003D000E01830BC00EBC25000F035B830B50B4629
:1003E000014600202022012409E021FA02F59D4265
:1003F00005D303FA02F5491B04FA02F52844151E39
:10040000A2F10102F1DC30BD202A04DB203A00FA1F
:1004100002F1002070479140C2F1200320FA03F35B
:10042000194390407047202A04DB203A21FA02F059
:100430000021704721FA02F3D040C2F1200291401E
:100440000843194670470029A8BF7047401C49005F
:1004500008BF20F00100704710B4B0FA80FC00FA29
:100460000CF050EA010404BF10BC704749B1CCF154
:10047000200421FA04F411FA0CF118BF01212143E0
:100480000843A3EB0C01CB1D4FEA00614FEA10209B
:1004900042BF002010BC704700EBC350104400293D
:1004A000A4BF10BC7047401C490008BF20F00100E9
:1004B00010BC704710B5141E73F1000408DA401C1C
:1004C00041F1000192185B411A4301D120F0010073
:1004D00010BD2DE9F04D92469B4611B1B1FA81F263
:1004E00002E0B0FA80F220329046FFF78DFF04461A
:1004F0000F4640EA0A0041EA0B0153465A460843B8
:1005000013D0114653EA010019D0C8F140025046F9
:10051000FFF789FF05460E46504659464246FFF70B
:1005200073FF084305D0012004E020463946BDE8AA
:10053000F08D0020054346EAE0762C4337430A98C5
:100540006305E40AA0EB08000022FD0A44EA4754D0
:100550000A3002D500200146E9E70105101969417A
:10056000DDE9084500196941BDE8F04DA2E72DE934
:10057000FE4F804681EA0300C00F0C46009021F038
:10058000004123F00045B8EB0200A94105D24046E6
:10059000214690461C460B46024623F0004010437D
:1005A00047D0270DC7F30A00C3F30A510290401A3F
:1005B000019040286BDAC3F3130040F4801B0098CD
:1005C000924620B10023D2EB030A63EB0B0B019898
:1005D0005946C0F140025046FFF716FF06460D4649
:1005E00050465946019A00F01BF910EB0800614192
:1005F000002487EA115284EAE7731A4340D0009A34
:1006000062B3019A012A4FEA075215DC001B61EB25
:1006100002014FF0004202EA0752CDE90042001CFD
:1006200041F5801132462B46FFF753FF03B0BDE87A
:10063000F08F40462146F9E7001B61EB0201001CE8
:1006400041F5801300185B412018A2F5001747EB15
:10065000030140EAD570B6196D4111E06D084FEA0B
:10066000360645EAC0754FEA0752001B61EB0201EE
:10067000001C41F5801149084FEA30000019514132
:1006800032462B4603B0BDE8F04FFFF713BF00988A
:10069000012240000023D0EB020263EBE0730098DC
:1006A00021464FEAE074B8EB000061EB0401E9E792
:1006B00083F000435BE781F0004158E72DE9F04DFE
:1006C00081EA030404F0004B21F0004514464FF08A
:1006D000000A23F0004150EA050220D054EA01024A
:1006E0001DD0C5F30A570246C5F31303C1F3130027
:1006F000C1F30A5640F4801543F48013A7EB0608B3
:10070000101BD64608F2FD3873EB050002D308F142
:10071000010801E092185B41B8F1000F03DA0020F4
:100720000146BDE8F08D00204FF480110646844656
:100730000EE0171B73EB050705D3121B63EB0503D4
:1007400006434CEA010C49084FEA300092185B411D
:1007500050EA0107EDD152EA030012D082EA040008
:1007600083EA0501084305D0101BAB4106D20122E4
:10077000002306E000224FF0004302E06FF0010288
:1007800053101AEB06004CEB085110EB0A0041EB3A
:100790000B01BDE8F04DFFF78DBEC1F30A52C1F366
:1007A000130140F2FF3341F480119A4202DA002033
:1007B0000146704740F233439A42A2F2334202DCD0
:1007C0005242FFF730BEFFF71FBE000030B5041ED7
:1007D00071F1000404DB4FF00044404264EB01017E
:1007E000141E73F1000405DB1C464FF00043524217
:1007F00063EB0403994208BF904230BD064C074D9D
:1008000006E0E06840F0010394E8070098471034E0
:10081000AC42F6D3FFF7BCFC68A0000888A0000833
:10082000202A06DBCB17203A41FA02F043EAE073B4
:1008300006E041FA02F3D040C2F1200291400843A1
:10084000194670472DE9F04D00231A461B1A8A41BC
:1008500003DB00200146BDE8F08DC1F30A52C1F36D
:10086000130141F480154FF0000BD10702D100189D
:100870006D41521E0027044640F2FF11384601EB3D
:10088000620A3E468046024600204FF48011FFF780
:10089000CAFDC2197141BB1846EB0100B4EB030C51
:1008A00075EB000C04D3E41A65EB000517460E4601
:1008B000241908F101006D4180463428E3DDF9195F
:1008C00046EB0600091BA84103D24FF0FF32134646
:1008D00001E0002213461BEB070046EB0A51BDE87E
:1008E000F04DFFF7E7BD70B58C1810F8015B15F0FF
:1008F000070301D110F8013B2A1106D110F8012B92
:1009000003E010F8016B01F8016B5B1EF9D12B07B6
:1009100005D40023521E0DD401F8013BFAE710F86C
:10092000013BCB1A921C03E013F8015B01F8015B59
:10093000521EF9D5A142D8D3002070BD2DE9F05F39
:10094000D04D8A460024611E6982C10600F00F075F
:100950004FF00109284685F80B90807BA34604D50B
:100960004FF0010B20F0100005E0C10601D5012F6A
:1009700070D100F00F00A873000607EB1050C0B252
:100980000026804644281DD009DC122811D02228D8
:100990000FD024280FD0B8F1420F20D109E0482809
:1009A00010D0822805D084280CD0B8F1880F16D139
:1009B00008E0022007E0B3492E31881E00F07EFBDC
:1009C000040004D1687B00F07DFE040007D0A87B02
:1009D00002286ED004286DD008286CD1ECE06E851A
:1009E0004046B8F1340F22D022DC222831D010DC6E
:1009F00014281CD007DC112874D012283BD0B8F181
:100A0000130F70D131E0182811D0B8F1210F6AD13D
:100A1000ABE028280BD005DC232808D0B8F1240F40
:100A200061D149E0312822D0B8F1320F5BD1BFE06B
:100A300048285ED00FDC42287FD005DC38286FD0F4
:100A4000B8F1410F4FD187E0432869D0B8F1440F86
:100A500049D195E0F2E0A8F18100082843D2DFE80F
:100A600000F07265A760A9A9A98F1324B9E0864890
:100A700013240670B5E007F0FDFE287820B103F0DE
:100A8000C3FF040002D006E05124AAE0EE7200F099
:100A900011FC040004D0FF2C6FD0E87A20B105E0EF
:100AA0007A4981F800909CE000F02AFC03F0E4FF12
:100AB00097E089E084E073E006F006FC040006D1CC
:100AC0007048EE72383000F0D3FB040004D0FF2CE5
:100AD00053D0E87A40B109E0288F06F095FB85F8FD
:100AE00002907EE04AE065E000F0E8FB07F01EF8C7
:100AF00077E006F0DFFD040004D1EE7200F0DCFBCD
:100B0000040004D0FF2C38D0E87A18B104E085F84E
:100B1000019066E000F0F6FB07F036F861E00CE0CB
:100B200046E000F0EFFB07F02FF80AE000F0EAFBE8
:100B3000044607F029F8EE7294BB00F0BFFB06F004
:100B4000F5FFEE724DE000F0DDFB044607F01CF807
:100B5000EE722CBB4FF0410800F0B0FB044606F0EB
:100B6000E5FFEE72E4B94FF0210803F085FF00F0D5
:100B7000C7FB0446444806702AE047E04248067036
:100B8000BBF1000F02D0404600F03CF9A87A68B9EA
:100B9000A87B10F00C0F09D0E88D10B1022003E003
:100BA00016E0A88D10B1032001F07EF8FE2418E0B5
:100BB000112416E0122414E000F0A4FB06F0E4FF78
:100BC00000F07CFB06F0B2FF162C04D00220A873C4
:100BD000FF2C1BD005E003F04FFF00F091FB85F8E0
:100BE0000E90A87B00F00F01B94247D054EA0A01E9
:100BF0002BD03843000728D5687818B100F082FB65
:100C000006F0C2FFE88DD8B102201CE085F80C90F8
:100C10004046A5F82A80B8F1120F07D0132805D056
:100C2000242806D0482804D0C82004E04FF4FA60F5
:100C300001E042F2283080B232386882BDE8F09F8D
:100C4000A88D10B1032000F08CFE4CB1A87B0828C1
:100C500001D10420A873C0B240F01000A87306E0D0
:100C6000BAF1000002D0044647F01007AF732E73AC
:100C7000A87B2146BDE8F05F06F0E0BA2E730021A4
:100C8000F8E7000094060020B40700208A0700203F
:100C90002DE9F041594C207B00287CD0608A00254A
:100CA00001270028608DA8461AD0122853D0132897
:100CB00051D0242876D048286DD1E07A00286AD017
:100CC0006079002869D0B4F91800002863DDB4F910
:100CD0001A1088425FDCA4F81880A4F81A8083E018
:100CE000C0F30716122806D0132804D024280DD0EC
:100CF000482846D114E0E07A08B900F001FB03F07F
:100D0000BBFE09E0258D3CE001253AE0E07A08B918
:100D100000F0D4FA06F00AFFA07A0028F4D0F1E738
:100D2000607950B1A07910B1E07810B103E02D25C1
:100D300006E0E08D18B91A2502E0E08D18B11B25F8
:100D4000E07A18B104E0082667701CE000F0DAFAD7
:100D500006F01AFF15E0E07A00284CD084F80B80EA
:100D600000F0A8FA38B1FF2845D000F0C9FABDE874
:100D7000F04103F081BE2248077094F82A0000F089
:100D80000F06002E37D084F80C800DB146F0100607
:100D90002946304602E02EE004E020E0BDE8F041C4
:100DA00006F04CBAE07A002825D0144884F80B806D
:100DB000383000F05DFA38B1FF281CD000F07EFA20
:100DC000BDE8F04106F0B2BEA7700426DBE7FF28BD
:100DD00011D000F097FABDE8F04106F0D5BEE08DE5
:100DE00010B1E078002806D000F066FA0028EED1B5
:100DF00067700826C7E7BDE8F08100009406002070
:100E00008A070020704700002DE9F04FDFF884A228
:100E1000DFF88492A14E9BB09AF80020A9F8302008
:100E200035789F48A9F83250B9F82E304380828037
:100E3000C580B9F834200281B9F836204281B9F86A
:100E4000382049468281C2890A80048A4C80428ABD
:100E50008A80828ACA80C269CA60026A0A61426A5A
:100E60004A61826A8A61C26ACA61026B0A628D49FA
:100E7000426BC9F824208C4F896B81613A780092CB
:100E800002808A48220A4FF0000B4FF0010842D03E
:100E900080F8008000293BD13C210CA8FFF7DAF94B
:100EA000E90741F2707002D1E10500D51490A9075D
:100EB00002D4A10500D51590690702D4610500D5BB
:100EC0001690290702D4210500D51790E90602D40F
:100ED000E10400D51890A90602D4A10400D5199008
:100EE0009AF80110ADF84E10BAF804000B902C22BD
:100EF00010A96846FFF795F90CAC94E80F0006F0CE
:100F0000BFFD012006F03AFC86F8088087F800B0A3
:100F10001BB0BDE8F08F654841F21114A5100078B0
:100F2000DFF88CA1012814D186F808B0DAF80000A7
:100F3000016A214206D1016A294203D1016821F0E8
:100F4000010101603C215748FFF784F9574981F8B6
:100F500000B0B9F80200C10772D000993C4631B127
:100F6000400704D54E4884F800B002210180B9F84A
:100F700024004D4680B204F025FA288803F00CFBCB
:100F80002078A346E0BB3C214648FFF763F9494679
:100F9000D1E90365AE4201D9304600E02846414F11
:100FA000B8614C69A04200D82046B8618B6998426C
:100FB00000D81846B861CA69904200D81046B86196
:100FC000D9F82010884200D80846B861012838D0E6
:100FD0004FEA500CC7F808C0C7F804C0C7F800C0F3
:100FE000C7F814C0C7F810C0C7F80CC03E62C7E904
:100FF0000D10C7E90B32C7E90954B9F80600F883A8
:10100000B9F804104846C82901D2C82181808AB2A3
:101010002849B1FBF2F328490B604CF250339A4255
:1010200001D92A220A6099F80200800701D58BF8BD
:101030000080DAF80000016841F00101016021E060
:101040000CE0C7F80880C7F80480C7F80080C7F82C
:101050001480C7F81080C7F80C80C7E73C211148FE
:10106000FFF7F8F8DAF80000016A214206D1016AB8
:10107000294203D1016821F00101016004F094F9D3
:1010800003F080FAB9F8021021F00101A9F802106A
:101090003EE7000050160020C01100205C16002022
:1010A000D8060020FC110020FF07002000080020C7
:1010B000D0080020200B2000040800202DE9F35F59
:1010C0004FF00008454644464746DFF8D4B01FE0DD
:1010D0000BEB4500408804F0F3FA060023D0B0691A
:1010E000B0F8009000200FE000F1010A0AF0FF00C4
:1010F000314604F04CFAB16901EBD000006857FAB0
:1011000080F087B21FFA8AF04845EDD36D1CADB26E
:10111000BBF80010A942DBD8FF1D4FEAD70AB8F18F
:10112000000F04D02EE04FF0000A252036E0DFF853
:1011300070B000250BF1040B20E000BF0BEB450065
:10114000408804F0BDFA060026D0B0690788002068
:1011500010E000BF00F1010909F0FF00314604F082
:1011600016FAB16901EBD000006854FA80F084B23D
:101170001FFA89F0B842EDD36D1CADB2BBF8001078
:10118000A942DBD80099E41DE00808800199404697
:10119000A1F800A0BDE8FC9F002424208046F1E7D0
:1011A0001007002010B50022154B25E003EB42018B
:1011B0004988B1F5D05F1DD111493C390C8B20F81D
:1011C000024B8C69240C20F8024B0C8820F8044B4D
:1011D0004C8820F8024C8C8820F8084BCC8820F8EA
:1011E000064C0C8920F8044C4C8920F8024C898963
:1011F00020F8021B521C92B219889142D6D810BD19
:101200001407002030B5194C002321882AE000BFC4
:1012100004EB43025288B2F5B05F21D1134A30F893
:10122000025B383AD58130F8025B158230F8025BF8
:10123000558230F8065B958250F8045CD56150F811
:10124000045B156250F8045B556250F80C5B9562C4
:1012500050F8085CD56250F8045C15630568556366
:101260005B1C9BB29942D3D830BD00001007002010
:1012700010B5012006F082FA3C210948FEF7EAFF8A
:10128000084800244480084804820848047002F09A
:101290009DFF0748012104728172002010BD0000EB
:1012A000FC110020C0110020D8060020FF070020FC
:1012B0005C160020002070470020704710B5002009
:1012C00006F05CFA04F070F803F05CF93C21074882
:1012D000FEF7C0FF0649002001224880054908703A
:1012E0000549088205490A72887210BDFC11002068
:1012F000C0110020FF070020D80600205C16002047
:10130000002070470020704730B5044600204FF69B
:10131000FF7505E0204600F04DF8002803D1283481
:101320002189A942F6D130BD10B560211248FEF7DF
:1013300091FF1248C18800EE101A0F49F8EE400ADA
:10134000B2EE040A80EE801A81ED151A028900EED1
:10135000902AF8EE600A80EE801A81ED161A408914
:1013600000EE900AF8EE600A80EE801A81ED171AFE
:10137000BDE8104003F02CBD84160020501600205C
:101380002DE9F0418846054600244FF48056074F6A
:1013900007E03146384601F06CF8404600F0B6FEF2
:1013A000641CAC42F5DBBDE8F081000000040240A3
:1013B000FEE7000030B500B3144B0022196849B1B4
:1013C0000D890489A54215D9026019684160086039
:1013D000186018E018604260026014E007D90A68DB
:1013E000C0E900210A6802B1506008600BE04B6858
:1013F00033B119460B89A342F0D14FF0010030BD43
:101400004860C0E900124FF0000030BD50000020DD
:1014100030B5064D2C6803E02089646800F0F0F8D0
:10142000002CF9D10020286030BD000050000020C1
:1014300010B50D4C206828B1002103F04FFA0020B0
:1014400020600CE04FF4807008F0CEF9040008D062
:101450000E220649FEF7E5FE204604F0BFFF0020FD
:1014600010BD072010BD0000900600204C11002088
:101470000148006870470000500000200249002029
:10148000086002490880704790060020D0070020BD
:101490002DE9F84F214F3C68002C3DD0DFF880A0AB
:1014A000204D214E9AF800000090DFF880B0DFF860
:1014B00080802B689BF80010B8F800003268A047C5
:1014C0000746FF2828D0DFF86C90002499F8000028
:1014D00001280DD0022804D003280CD004280FD1F5
:1014E00009E01549086818B108F0E8F812480460E6
:1014F0000022114601E02A683168384605F09EF85E
:1015000089F80040A8F800408BF800403460034898
:101510002C608AF800400460BDE8F88FE0070020E6
:10152000C6070020DC070020D8070020C7070020DE
:10153000CE070020C5070020E4070020084900B5B9
:101540000020086001F23C40FFF7DEFE002805D1D4
:1015500003485DF804EB001DFFF7D6BE00BD000098
:101560005000002010B51A48202200240280448038
:10157000446044F21F0184608181164BC0E9043449
:101580008483046280F840401348028044804460B1
:1015900084608181C0E904348483046280F840401F
:1015A0000E480470FFF7CAFF08B1FFF731FF0C487F
:1015B00004700C4804700C4804800C4804700C48FB
:1015C00004600C4804600C4804600C48046010BDC2
:1015D000C4100020A086010008110020B4070020DC
:1015E000C5070020C6070020CE070020C70700203F
:1015F000D8070020DC070020E0070020E4070020D7
:101600000C4B196813E00A8982420FD1D1E90020FE
:1016100002B1506000B1026000220A604A601A689C
:1016200009891289914200D11860704749680029E0
:10163000E9D1704750000020C188090B09290CD25C
:10164000DFE801F00B09050909090909070004F0A1
:101650005BBD04F0C3BE0420704705207047000046
:1016600038B5174C608EC0B10025ADF8005002228D
:101670004FF48861684602F056FCBDF80000ADF8F2
:101680000000C00709D1E08D38B1607820B11B217E
:101690000420FFF753F938BDE57060790028FAD0CF
:1016A00060780028F7D0A07940B1E0790028F2D125
:1016B0001A21BDE838400420FFF740B92C21F8E793
:1016C000940600202DE9F0475E4D06460024288E42
:1016D00041F6FF71884202D21420BDE8F087002055
:1016E00000F08CFC42880188D30774D1CB0772D1FB
:1016F0008379DB0723D08088C0F38103012B1ED1BF
:1017000080071CD5222A1AD34FF48078424516D878
:101710001F03B94213D34FF4005949450FD201209A
:1017200000F06CFC41880288CB0754D1D30752D11A
:101730008379DB0703D0808810F00C0F01D01624CA
:101740007EE08007FBD52229F9D34145F7D8B8467A
:101750004245F4D34A45F2D200274FF0010A032E46
:101760002DD985F809A0032000F048FC01464088E7
:101770000A88C3072FD1D3072DD18B79DB071BD064
:1017800028B1AB8D984202D10BB1442801D91E2457
:1017900056E0888810F00C0FF9D1A97B022906D0F9
:1017A000E98E8A42F3D1800709D56F7207E042457E
:1017B000EDD34A45F7D3EAE7A98D0843E7D1022ED6
:1017C0003BD9022000F01AFC014640880A88C30772
:1017D00001D1D30701D017207FE78B79DB0720D019
:1017E00010B3EB8D98421FD1F3B144281CD88888E0
:1017F000C0F38101012917D1A97B022907D0A98E45
:101800008A4211D1410607D585F804A005E042457A
:101810000AD34A45F6D307E02F7180070DD56F72C2
:101820000BE0E98D084308D01D2409E0304600F0A4
:10183000E5FBC0882882761CF6B2687B8642F5D329
:1018400020464AE79406002070B5204B1E4C03F159
:10185000440241F63246751C24889B8992890229EC
:101860001DD003DC01B301292CD104E0032921D0D0
:10187000222927D10DE0B04202D11CB3980711E014
:10188000A8421FD190071DD5E4B91148008858B966
:1018900018E0A84216D1900714D52CB912E0B04236
:1018A00004D1580700280DDA002070BDA84209D1E4
:1018B0005007F7E7B04201D11807F3E7A84201D17A
:1018C0001007EFE7122070BDC2060020C4100020F0
:1018D000C006002070B5092003F0A1FD1D48417924
:1018E00049B1C18B002259B1838B8B4208D38271DD
:1018F000C17901B1C271BDE87040092003F0A5BDF6
:10190000838B8B4201D25B1C838301218171438CC9
:1019100023B1048C9C42EAD2641C04840E4B0F4D0C
:101920001C8D2D89AC4208D2C171B0F91810002964
:10193000E1DD418B491C4183DDE7C479002CDAD01D
:10194000C27183F84010B0F918100029D3DD42832A
:10195000D1E7000094060020C4100020A807002052
:10196000704738B54FF48071ADF8001040F60601AD
:1019700001EBC00402222146684602F02CFB022241
:101980002146684602F0CFFABDF80000C005F6D542
:1019900038BD00000948406818B909494888401C0A
:1019A00048800848007830B10749B1F900000028A4
:1019B00001DD401E0880FFF78DBF0000C41000202D
:1019C00084060020A0060020A6060020F8B5002509
:1019D000ADF8005002220421684602F0A4FABDF8D6
:1019E00000001E4CADF80000000A607302220621C0
:1019F000684602F098FABDF80000ADF8000040F625
:101A0000FF7101EB8020208606F034FF002604E001
:101A10003046FFF7A6FF761CF6B2607B8642F7D30E
:101A200002F0D4FEE5722573E5706570A57025712E
:101A30006586A583E583258465846571A572258502
:101A40002587E585A5850120A073002105F0F6FB1B
:101A500065852572BDE8F840FFF710BD94060020AB
:101A60002DE9FE4300260120ADF80060ADF804002A
:101A700002F0A4FF3C4F40F60E08387840B1022235
:101A8000414601A802F04FFABDF80400ADF8040089
:101A900002F0FAFA0446354DC00711D0287B78B918
:101AA00002224FF49071684602F03DFABDF8000042
:101AB000ADF8000024F01104C0B20021FEF73EFF93
:101AC000E0060FD5287B78B9A87BC1060ED420F09C
:101AD000100101290AD024F0100400F00F000021A9
:101AE000FEF72CFF287B08B1FFF7D2F838780028E2
:101AF00038D0BDF80400C00705D1A87B002100F054
:101B00000F00FEF71BFFA00509D56E8718480222BB
:101B1000018816483A3002F05EFA02F08FFEBDF8F6
:101B20000400144C8007207801D508B114E098B166
:101B300002F0B4FE20780028BDF8040002D040F482
:101B4000007001E020F4007080B2ADF804000222C1
:101B5000414601A802F03FFA02F096FAC00501D50D
:101B600002F072FDBDE8FE838A0700209406002083
:101B7000960700208B0700207047000010B586B044
:101B800000F06AFB00240948009400F0D9F90290A3
:101B9000012003900220CDE9040405A9684600F065
:101BA000C7FA00F011FB06B010BD000000F80F08E6
:101BB0004FF4806201490248FEF733BB00F80F087A
:101BC000501200202DE9F041FFF7D8FF00F044FB50
:101BD0000B4D0C4E00244FF4007700BF05EB440082
:101BE00006EB440102880023012000F0F7FA641C90
:101BF000A4B2BC42F2D3BDE8F04100F0E5BA000067
:101C00005012002000F80F080149085C70470000DE
:101C10005012002070B500230C4D0EE00C46491CFC
:101C20002C5D5E0089B256EAD31300D00123234411
:101C3000521EDBB200F8014B92B2002AEED1685C72
:101C4000984201D1012070BD002070BD50120020CB
:101C5000014A1154704700005012002070B5002353
:101C60000A4D0EE05C0054EAD31300D0012306466F
:101C700011F8014B401C2344521EDBB280B2AC551C
:101C800092B2002AEED12B5470BD000050120020F9
:101C90007047022000F004BB7047042000F000BB36
:101CA0007047082000F0FCBA38B50021ADF80010EC
:101CB00040F6060101EBC00402222146684602F00C
:101CC0008AF902222146684602F02DF9BDF800008B
:101CD000C005F6D438BD10B5092003F0ABFB05F004
:101CE0005BFFBDE81040092003F0C5BB10B509201B
:101CF00003F0A0FB05F0DCFFBDE81040092003F075
:101D0000BABB0000002229B101291AD002291BD038
:101D10004FF440720E490B6823F440730B600B685C
:101D200013430B600A6822F0F8020A600A68022373
:101D300003EBC00002430A60086840F4803008608A
:101D400070474FF48072E5E74FF40072E2E700005D
:101D5000103C02401348016889050FD5016821F441
:101D600000710160016841F400610160016821F4C3
:101D700000610160016841F400710160016849057A
:101D80000FD5016821F480610160016841F4805140
:101D90000160016821F480510160016841F48061B3
:101DA00001607047003C024008490A6822F4407212
:101DB0000A600A6842F004020A600A684FF480333D
:101DC00043EA002002430A6070470000103C0240D2
:101DD000064A136823F44073136013681360136892
:101DE00043F001031360017070470000103C024093
:101DF000084910B50C6824F440740C600C6844F475
:101E000040740C600C6844F001040C600260436094
:101E100010BD0000103C0240074A136823F44073D1
:101E20001360136843F480731360136843F0010375
:101E30001360018070470000103C0240074A13689D
:101E400023F440731360136843F400731360136842
:101E500043F001031360016070470000103C024032
:101E600017490868C206174805D5C26942F0100232
:101E7000C26110220A600A68920605D5C26942F062
:101E80000802C26120220A600A68520605D5C269AA
:101E900042F00402C26140220A600A68120605D5B7
:101EA000C26942F00202C26180220A600A68920797
:101EB00005D5C26942F02002C26102200860704765
:101EC0000C3C0240B40D002070B5114904460020BE
:101ED000C86100F0D7FA06460E4D09E0601C07D035
:101EE00024B100F0CFFA801BA04201D9032070BDBD
:101EF0002868C003F2D42868C00701D001202860F8
:101F0000286810F0F200F2D0FFF7AAFF012070BDA0
:101F1000B40D00200C3C02400188428891420BD055
:101F200000EB8102491C926889B201808388994242
:101F300003D10021018000E000221046704700001C
:101F40000021A0F100634FF4804293423FD3214926
:101F50000144914201D2012139E01F4901449142DB
:101F600001D2022133E01D490144914201D20321F3
:101F70002DE01B490144B1F5803F01D2042126E048
:101F8000184942184FF400318A4201D205211EE05F
:101F9000154A02448A4201D2062118E0134A02443B
:101FA0008A4201D2072112E0114A02448A4201D238
:101FB00008210CE00F4A02448A4201D2092106E0BE
:101FC0000D4A1044884201D20A2100E00B21084644
:101FD0007047000000C0FFF70080FFF70040FFF7E8
:101FE0000000FFF70000FEF70000FCF70000FAF722
:101FF0000000F8F70000F6F70000F4F74FF4006176
:1020000010B501EBC0010822024801F08CFF014825
:1020100010BD0000D006002070B52E4E2E492F4D69
:10202000B078896B2C789CB029B384424FD1687802
:102030003C2120F001006870002028702648FEF73F
:1020400009F927480068016A41F21112114207D1CB
:10205000016A9210114203D1016821F0010101606F
:10206000012211031F4800F008FA1CB00020BDE84F
:10207000704005F083BB3C210CA8FEF7EBF8E107AC
:1020800041F2707000D11490A10700D4159061073F
:1020900000D41690210700D41790E10600D41890C0
:1020A000A10600D419907078ADF84E00B0880B905E
:1020B0002C2210A96846FEF7B4F80CAC94E80F0087
:1020C00005F0DEFC012005F059FB012028721CB050
:1020D00070BD000050160020FC1100205C1600208E
:1020E000D00800200004024090F83510022903D0E7
:1020F0008021416501207047052180F83510006876
:10210000016821F0010101600020704770B50446AC
:1021100000F0B8F90546601C02D004480078044479
:1021200000F0B0F9401BA042FAD370BD04000020BB
:102130002DE9F047044622480F46017E01290AD0C6
:102140000121804601764CF250394846FFF7BCFE2B
:10215000020003D02FE00220BDE8F0874FF0FF30EF
:1021600038602068174D012801D0A6681CE0207C4B
:102170006168FFF719FE4846FFF7A6FE0246286889
:1021800020F00400286014E0217C3046FFF7BAFDFF
:102190004846FFF799FE0200286820F0FA00286000
:1021A00001D03E6005E0761CD4E902100844B0423C
:1021B000EAD8FFF7CFFD002188F818101046CBE7CA
:1021C000B40D0020103C02400348016841F000417A
:1021D0000160002070470000103C02402DE9F047EC
:1021E0001B4E05461446307E1F468946012808D0FE
:1021F000012030764CF250384046FFF765FE18B1AA
:1022000014E00220BDE8F0879DB1012D16D0022D0B
:1022100019D022463B464846FFF7EAFD4046FFF705
:1022200053FE0C490A6822F001020A60002131764F
:10223000E8E7E1B24846FFF7CBFDEFE7A1B2484639
:10224000FFF7EAFDEAE721464846FFF7F7FDE5E735
:10225000B40D0020103C0240074900200A68002A03
:1022600009DA054A054B0C3A1360054B13600968FF
:10227000002900DA01207047103C02402301674525
:10228000AB89EFCD022805D0042805D0082805D158
:1022900003F054BEFFF71FBDFFF728BD70470000D5
:1022A000044910B50A68024202D00860FFF7EAFF4D
:1022B00010BD0000143C01402DE9F84FDFF87CB15F
:1022C00000224FF001084FF0030A4FF00F090BF105
:1022D000040E00BF0B6808FA02F42340A3426ED13B
:1022E0004D68022D01D0122D0ED1D50800EB850CC2
:1022F000DCF820505607F70E09FA07F6B5430E69C9
:10230000BE402E43CCF82060066855000F790AFACB
:1023100005FC07F0030726EA0C06AF4037430760C9
:102320004E68012E05D0022E03D0112E01D0122EA0
:102330000ED18668CF6826EA0C06AF403743876027
:102340004668A6430C79C4F30014944034434460B7
:10235000C6688C6826EA0C06AC403443C4604C68FE
:10236000E40065D5364C256845F480452560246831
:1023700022F0030504F480440094324C2E19D6F860
:10238000084895072F0F09FA07F5AC432E4DA842D0
:1023900001D1002524E02D4DA84201D101251FE0E7
:1023A0002B4DA84201D102251AE02A4DA84201D1A5
:1023B000032515E0284DA84202D1042510E037E09E
:1023C000264DA84201D105250AE0254DA84201D19C
:1023D000062505E0234DA84201D1072500E0082588
:1023E000BD402543C6F80858DBF800405D464E68FE
:1023F0009C43F60300D51C432C60DEF80040754674
:102400004E689C43B60300D51C432C600B4D083529
:102410002C684E689C43F60200D51C432C60074D87
:102420000C352C684E689C43B60200D51C432C60CA
:10243000521C102AFFF44EAFBDE8F88F003C01405B
:1024400044380240003001400000024000040240D5
:1024500000080240000C024000100240001402403C
:1024600000180240001C02400069084000D0012012
:10247000704742694A40426170470AB181617047C2
:102480000904FBE701488068704700000400002051
:1024900070B5040004D094F83D00002510B106E0AA
:1024A000012070BD84F83C50204600F0B5FA24208D
:1024B00084F83D002068016821F00101016000F00E
:1024C000EBFC33492268B0FBF1F15160314A63689B
:1024D000934206D94FF4967359434FF47A73B1FB84
:1024E000F3F12368491C1962616891420BD84900D5
:1024F000B0FBF1F2C2F30B02042A01D2042019E06E
:10250000B0FBF1F016E0A3689BB301EBC10202EB54
:102510000112B0FBF2F242F48042120530D04BB30C
:1025200001EBC10202EB0111B0FBF1F040F480407D
:1025300040F400402168C861D4E9070108432168DC
:102540000860D4E90310084321688860D4E90501D4
:1025500008432168C8602068016841F001010160FA
:102560002564202084F83D00256384F83E50002037
:1025700070BD00E006E001EB4102B0FBF2F2CCE7F7
:102580000120D7E701EB4101B0FBF1F0D0E70000FB
:1025900040420F00A08601002DE9FF4F81B099460F
:1025A0008B4604464FF00108FFF76CFF054694F890
:1025B0003D0020287BD1192301224D49204600955A
:1025C00001F013FF002872D194F83C0001286ED06E
:1025D000012084F83C0020680168C90703D1016824
:1025E00041F0010101602068016821F4006101608F
:1025F000242084F83D00002626643E48E06220271F
:102600002068016841F4807101604B4600224FF060
:1026100001112046009501F0E8FE002858D12168FC
:102620000BF0FE000861FFF72DFF216805464869A1
:102630004969C0F3400094F83D20C1F380214FF078
:10264000A00A12E0B9F1000F04D0FFF71BFF411BF5
:10265000494501D984F83DA0216848694969C0F31A
:10266000400094F83D20C1F38021084301D1A02A05
:10267000E8D184F83D7020684169C943890717D4BF
:10268000016841F400710160206841698069192383
:10269000012217492046009501F0A7FEC0B984F831
:1026A0003D7084F83C60002005B0BDE8F08F1DE06F
:1026B000016841F40071016021686FF48060486135
:1026C000192301220A492046009501F08EFE08B127
:1026D0000320E9E74146039808F1010881428FD3BE
:1026E00084F83D7084F83C600120DDE70220DBE7E0
:1026F000020010000000FFFF2DE9F84F1F46904632
:102700008A460446DDF82890FFF7BCFE054694F89B
:102710003D0020286FD1192301226E4920460095E3
:1027200001F063FE0028F5D194F83C00012862D046
:10273000012084F83C0020680168C90703D10168C2
:1027400041F0010101602068016821F4006101602D
:10275000222084F83D00102084F83E0000262664E4
:10276000C4F8248067855C48E062608D20852B4634
:102770004A465146204601F057FD28B1206C84F8A6
:102780003C60042841D04DE0208D544F68B10128B1
:1027900014D002282068016816D041F480610160DD
:1027A000206841698069009085E0206841698169FD
:1027B0000091016841F4007101607CE020680168CB
:1027C00021F480610160F0E721F4806101602068FC
:1027D000016841F40061E2E7032849D801280BD0E1
:1027E000022817D04B46002239462046009501F0BA
:1027F000FCFDB8B92AE06AE02A464946204601F0C5
:1028000069FE28B1206C20280CD00120BDE8F88F8B
:10281000206845E04B46002239462046009501F0ED
:10282000E4FD08B10320F1E72068016841F400717C
:10283000016020680169606A421C62620170208D3B
:10284000401E2085608D401E6085E1E7206801689C
:1028500021F48061016020680169606A421C626243
:102860000170208D401E2085608D401E6085D1E75F
:102870002A464946204601F02DFE0028C2D1206894
:102880000269606A411C61620270208D401E2085D1
:10289000608D401E608520684169C94349070AD49C
:1028A0000169606A421C62620170208D401E2085B1
:1028B000608D401E6085208D00288DD1202084F8F9
:1028C0003D0084F83E6084F83C6000209EE70220D2
:1028D0009CE70000020010000000FFFF0400010060
:1028E0002DE9F84F1F4690468A460446DDF82890A9
:1028F000FFF7C8FD064694F83D0020287ED1192335
:10290000012243492046009601F06FFD00287DD149
:1029100094F83C00012879D0012084F83C0020681C
:102920000168C90703D1016841F001010160206815
:10293000016821F400610160212084F83D0010202D
:1029400084F83E0000252564C4F82480678531485A
:10295000E062608D208533464A465146204601F0AC
:10296000D3FC28B1206C84F83C5004284CD00DE0F6
:10297000206841698069009030E03246494620462F
:1029800001F0D9FD28B1206C042838D00320BDE81F
:10299000F88F606A411C6162216800780861608D6F
:1029A000401E6085208D401E80B2208521684A69C6
:1029B000D24352070BD450B1606A421C6262007865
:1029C0000861608D401E6085208D401E2085324646
:1029D0004946204601F0E2FC0028D4D1208D002891
:1029E000CBD154F83D0B016841F400710160202007
:1029F00004F81E09E57765770020C8E706E020683F
:102A0000016841F4007101600120C0E70220BEE7C7
:102A1000020010000000FFFF00B500680E4987B0FB
:102A2000884217D14FF4406000901220019001209D
:102A30000290032003900420049069460748FFF7A2
:102A40003BFC0748016841F480010160006800F424
:102A50008000059007B000BD00580040000402400F
:102A60004038024070B5040011D021684CF6CC40CB
:102A70000860216845F255500860D4E900014160C2
:102A80002168A0688860FFF7FDFC054609E0012089
:102A900070BD00BFFFF7F6FC401B302801D90320B2
:102AA00070BD2068C0680028F4D121684AF6AA20C9
:102AB0000860002070BD00684AF6AA21016000206D
:102AC00070470000024881680278114481607047B5
:102AD000040000200B4810B5016841F4007101604A
:102AE000016841F480610160016841F48071016016
:102AF000032000F097F8002000F006F800F024F81A
:102B0000002010BD003C024070B50D4D04464FF44E
:102B10007A712878B1FBF0F00A490968B1FBF0F04E
:102B200000F018FD48B9102C07D200222146501E93
:102B300000F058F800206C6070BD012070BD0000EE
:102B400004000020100000201F4808B5016841F46F
:102B500080410160006800F4804000901A48001F26
:102B6000016841F080510160006800F080500090E1
:102B7000032000F057F8002211466FF00B0000F020
:102B800031F8002211466FF00A0000F02BF8002205
:102B900011466FF0090000F025F800221146501F81
:102BA00000F020F800221146101F00F01BF8002250
:102BB0001146901E00F016F80022BDE808401146AC
:102BC000501E00F00FB800004438024000F01F0211
:102BD000012191404009800000F1E020C0F800117F
:102BE00070470000F0B40E4B1B680C46C3F3022381
:102BF000C3F10705042D00D90425191D072901D2A9
:102C0000002300E0DB1E012606FA05F1491E2140E3
:102C100099409E40761E16403143F0BC02F036BC0F
:102C20000CED00E0064900F0070208684FF6FF03CC
:102C3000184040EA0220034A104308607047000031
:102C40000CED00E00000FA05F0B58BB004004FF089
:102C5000000556D0032084F8B903204600F054F84C
:102C6000206805F0C9FD04F1100128220F466846CE
:102C7000FDF7D7FA94E80F0005F0C0FC00212068AA
:102C800005F0E2FD01260020C5EBC50104EB810142
:102C900081F8396001F8385FCD80C8708860C860FD
:102CA0006D1C48610F2DEFD300214FF4827300BFDC
:102CB000C1EBC10204EB820203EB810582F8F9014A
:102CC00082F8F811D18782F8FB01C2F80002C2F83D
:102CD0000402C2F80C0222685051491C0F29E7D3A4
:102CE000282239466846FDF79CFA94E80F0005F063
:102CF000E3FC84F8B963206805F0D2FC00200BB037
:102D0000F0BD0120FBE7000000B5006887B0B0F11E
:102D1000A04F1DD14FF4C050009002200190002020
:102D20000290032003900A20049069460948FFF7A7
:102D3000C3FA0948016841F080010160064810307B
:102D4000016841F480410160006800F48040059012
:102D500007B000BD00000240343802402DE9F047C2
:102D60000E46050065D0DFF81481D8F80000F7B2F0
:102D700000F00F00B04207D288F80070D8F80000C9
:102D800000F00F00B04254D128683D4C810712D5A5
:102D9000400703D5206840F4E05020602878000701
:102DA00003D5206840F4604020602068A96820F0C6
:102DB000F000084320602878C0072DD030496868AB
:102DC0000839012812D0022813D0032811D009682D
:102DD000890700292DDA216821F0030101432160D0
:102DE000FFF750FB814641F2883A0EE009688903FB
:102DF000EFE709688901ECE7FFF744FBA0EB090165
:102E0000514502D90320BDE8F0872068696800F0C9
:102E10000C00B0EB810FEFD1D8F80010404601F064
:102E20000F01B14207D90770006800F00F00B042EF
:102E300001D00120E7E72878400705D52068E96838
:102E400020F4E050084320602878000706D5206869
:102E5000296920F4604040EAC100206000F03CF89D
:102E60002168084AC1F30311515CC8400649086053
:102E70000020FFF749FE0020C5E70000003C0240AB
:102E800008380240C298000810000020014800687D
:102E900070470000100000200448054900680968D8
:102EA000044AC1F38221515CC840704710000020E1
:102EB00008380240D29800080448054900680968AB
:102EC000044AC1F34231515CC840704710000020F1
:102ED00008380240D2980008154810B5006810F074
:102EE0000C02144813D04110042A0FD0082A0ED126
:102EF0000F4C241F2268236802F03F025B0207D5B3
:102F00002068C0F38810A0FB010106E0084610BD50
:102F10002168C1F38811A1FB00010023FDF750F9DE
:102F20002168C1F30141491C4900B0FBF1F010BD1B
:102F3000083802400024F4002DE9F84F050076D04F
:102F40002878DFF8F8B2BE4CC00749D0DBF8001093
:102F50005846C1F38101012908D00068C0F38100FF
:102F600002280AD1201D0068400206D5206880038F
:102F700036D568680028E2D032E06868B0F5803F56
:102F800010D0B0F5A02F206810D020F48030206041
:102F9000206820F4802020606868A0B1FFF772FAF2
:102FA00006460CE0206840F48030F4E740F48020CE
:102FB0002060F7E7FFF766FA801B642873D8206863
:102FC0008003F7D50CE0FFF75DFA064605E000BF89
:102FD000FFF758FA801B6428F0D820688003F7D4E4
:102FE0002878DFF8608280074FF000093ED5DBF8D3
:102FF0000010584611F00C0F09D00068C0F3810092
:1030000002280BD18D48001F0068400206D42068BA
:10301000800715D5E868012809D111E0E868B8B142
:103020000120C8F80000FFF72DFA064605E002E18E
:10303000FFF728FA801B0228C0D820688007F7D540
:103040002068296920F0F80040EAC10020600DE006
:10305000C8F80090FFF716FA064604E0FFF712FAE8
:10306000801B02281FD820688007F7D42878000723
:1030700022D5724E744869696C3671B101210160C4
:10308000FFF700FA074604E0FFF7FCF9C01B02282F
:1030900009D830688007F7D50EE0C0F80090FFF738
:1030A000F1F9074605E083E0FFF7ECF9C01B0228C1
:1030B0007ED830688007F7D42878400768D5DFF8D5
:1030C0007CA100270AF1380ADAF80000C0000BD40E
:1030D000DAF8001041F08051CAF80010DAF8000068
:1030E000012700F080500090584E3068C00510D481
:1030F000306840F480703060FFF7C4F9009005E05C
:10310000FFF7C0F90099401A022851D83068C0056D
:10311000F6D54A4EA868683601280FD005283068D1
:1031200010D020F001003060306820F004003060E2
:10313000A868B8B1FFF7A6F900900FE0306840F03A
:103140000100F4E740F004003060F7E7FFF79AF978
:103150000099411A41F28830814264D83068800772
:10316000F4D50EE0FFF78EF9009007E0FFF78AF93B
:103170000099411A41F28830814254D83068800762
:10318000F4D42FB1DAF8001021F08051CAF8001001
:10319000A869C0B3DBF80010C1F3810102294AD04D
:1031A0000228484607D0C8F86000FFF76BF900E036
:1031B00039E005463AE04746C8F86000FFF762F993
:1031C000064604E0FFF75EF9801B02282BD8206832
:1031D0008001F7D4D5E907010843A96A1C4A4908C8
:1031E00002EB01416A6A41EA8211084395F82C100A
:1031F00040EA01611148001F016001203866FFF7B5
:1032000041F9054605E014E0FFF73CF9401B0228B0
:1032100009D820688001F7D50BE000BFFFF732F92D
:10322000401B022802D90320BDE8F88F20688001E6
:10323000F4D40020F8E70120F6E700000838024047
:103240000038024000004742800E474200700040B4
:103250000000FFFF90F85100704770B5040005D0E2
:103260000025A56294F8510010B106E0012070BD60
:1032700084F85050204600F031F8022084F85100C4
:103280002068016821F040010160D4E90101084390
:10329000D4E903121143084361690843218B01F407
:1032A00000710843E1690843216A0843A16A0843A1
:1032B00021680860A069042101EA1040616A08439E
:1032C000216848602068C16921F40061C1616565B9
:1032D000012084F85100002070BD000000B5006896
:1032E0000D4987B0884215D10C48016841F400416E
:1032F00001600068694600F40040059038200090A5
:1033000002200190029003200390062004900448BC
:10331000FEF7D2FF07B000BD003C0040403802403D
:10332000000402402DE9F84F044690F850000026B2
:103330000A9F9A4693460D464FF0010801280ED089
:10334000012084F85000FFF79DF8814694F8510061
:10335000616801280CD0B1F5827F07D102E002201C
:10336000BDE8F88FA16809B9042801D00226BDE0A4
:1033700055B1BBF1000F07D0BAF1000F04D094F89B
:103380005100012802D004E00126AFE0052084F8B6
:10339000510000206065C4F838B0A4F83EA0A4F83D
:1033A0003CA02563A4F836A0A4F834A0206460648F
:1033B00020680168490603D4016841F040010160BA
:1033C000E068B0F5006F606804D0E8B3E08E0128D3
:1033D0003BD06AE010B1E08E01282ED1216835F88B
:1033E000020BC860E08E401EE08626E0B8F1000FB8
:1033F0000DD0E08E58B120688168890707D535F86F
:10340000021BC160E08E401EE0864FF00008E08F96
:1034100058B120688168C90707D0C0682BF8020B33
:10342000E08F401EE0874FF00108781C05D0FFF7C1
:1034300029F8A0EB0900B84246D2E08E0028D5D189
:10344000E08F0028D2D136E0FFE7216815F8010BA4
:103450000873E08E401EE08627E000BFB8F1000F41
:103460000DD0E08E58B120688168890707D515F81E
:10347000011B0173E08E401EE0864FF00008E08FD4
:1034800058B120688168C90707D0C0680BF8010BE4
:10349000E08F401EE0874FF00108781C05D0FEF752
:1034A000F1FFA0EB0900B8420ED2E08E0028D5D182
:1034B000E08F0028D2D13B46012202212046CDF8E0
:1034C000009003F07BFC08B103260FE04A46394622
:1034D000204603F063FC18B101262020606505E05A
:1034E000A06818B92068C16880680090012084F83D
:1034F0005100002084F85000304631E74FF0E021C1
:103500000428086903D020F004000861704740F0E7
:103510000400FAE710B501F061F801F057F804F083
:1035200069FC0B4928B1CA8872B90A22CA8048705E
:103530000AE0B1F906203AB130B9521E10B2C88083
:10354000002801DA0020C880BDE8104004F082BCE9
:103550005C16002010B5401EB0F1807F01D3012021
:1035600010BD4FF0E02460610F21601701F08EFF65
:103570000020A06107202061002010BD10B5FFF7DA
:10358000C9FF10BD7047704730B590F83820012A48
:1035900020D0012280F83820022380F839300368D7
:1035A0005C6824F070045C6003685C680D682C4300
:1035B0005C6003689C6824F080049C6003689C68DD
:1035C00049680C439C6080F83920002180F838104D
:1035D000084630BD022030BD10B5040003D094F879
:1035E000390010B107E0012010BD002084F8380038
:1035F000204600F00DF8022084F83900211D2068D3
:1036000004F068FC012084F83900002010BD00009F
:1036100008B51B4A01681B4891420ED1016841F070
:10362000040101600068002200F0040000901146CF
:103630001E20FFF7D7FA1E2010E0134A914211D145
:10364000016841F0080101600068002200F00800F4
:10365000009011463220FFF7C5FA3220BDE808403D
:10366000FFF7B4BA0948814209D10648001D016834
:1036700041F480310160006800F48030009008BDA2
:103680000008004040380240000C0040004001406B
:103690000168CA6842F00102CA600068016841F02E
:1036A00001010160002070470168CA6822F0010230
:1036B000CA600068016A41F21112114207D1016A21
:1036C0009210114203D1016821F001010160002034
:1036D000704770B5044690F83800012817D00125CE
:1036E00084F83850022084F839002068826822F07B
:1036F000770222F47F4282600868502837D00DDCC0
:10370000202859D005DC88B3102841D151E002208F
:1037100070BD302853D040283AD13FE060282ED0E9
:1037200070280BD0B0F5805F03D0B0F5005F2FD1CB
:1037300010E02068816821F0070115E0CB68D1E92D
:103740000121206804F084FC2168886840F077003B
:1037500088601DE0CB68D1E90121206804F078FC85
:103760002068816841F48041816011E01EE0CA68F0
:103770004968206804F034FD5021206806E0CA68DA
:103780004968206804F03DFD6021206804F06AFC6F
:1037900084F83950002084F8380070BDCA68496840
:1037A000206804F01DFD40212068EFE7002120681B
:1037B000ECE710212068E9E720212068E6E73021C6
:1037C0002068E3E7704770B50446006801694FF070
:1037D0000005C943890715D4C168C943890711D4B5
:1037E000E91E01610120207620688069800720465B
:1037F00002D0FFF7E7FF04E000F0DDF8204600F01C
:10380000B1F9257620680169C943490717D4C16811
:10381000C943490713D46FF00401016102202076E7
:103820002068806910F4407F204602D0FFF7CAFF6D
:1038300004E000F0C0F8204600F094F925762068F6
:103840000169C943090716D4C168C943090712D4DD
:103850006FF008010161042020762068C0698007AC
:10386000204602D0FFF7AEFF04E000F0A4F82046A7
:1038700000F078F9257620680169C943C90617D494
:10388000C168C943C90613D46FF010010161082053
:1038900020762068C06910F4407F204602D0FFF7F0
:1038A00091FF04E000F087F8204600F05BF92576F0
:1038B00020680169C943C90708D1C168C943C9075C
:1038C00004D1891E0161204600F06AF9206801696F
:1038D000C943090609D4C168C943090605D46FF074
:1038E000800101612046FFF74DFE20680169C94350
:1038F000490609D4C168C943490605D46FF040019F
:103900000161204600F054F920680169C943890625
:103910000BD4C168C943890607D46FF02001016147
:103920002046BDE87040FFF72EBE70BD00B50068B0
:10393000094985B088420CD1042000900220012161
:10394000CDE9010103900320049069460348FEF786
:10395000B3FC05B000BD0000004001400000024083
:1039600070B5044690F8380001280DD0012584F880
:103970003850022084F8390042B1042A0AD0082ABB
:103980000CD00C2A11D10DE0022070BD206804F08B
:1039900071FB0AE0206804F099FB06E0206804F05F
:1039A000C7FB02E0206804F0F3FB84F839500020E4
:1039B00084F8380070BD704710B5040003D094F847
:1039C000390010B107E0012010BD002084F8380054
:1039D000204600F00CF8022084F83900211D2068F0
:1039E00004F078FA012084F83900002010BD7047F7
:1039F00010B50268044631B1042908D0082920D046
:103A00000C2908D121E0D06840F0020002E0D06823
:103A100040F00400D0600122206804F0BBFA0D4998
:103A20002068884202D00C49884203D1416C41F49D
:103A3000004141642068016841F0010101600020FB
:103A400010BDD06840F00800E4E7D06840F01000F6
:103A5000E0E70000000001400004014070B50446AA
:103A600090F838000D4601280DD0012684F8386002
:103A7000022084F8390042B1042A18D0082A2AD03A
:103A80000C2A4DD139E0022070BD206804F0F2FA12
:103A90002068816941F0080181612068816921F015
:103AA00004018161206881692A69114311E020685D
:103AB00004F00CFB2068816941F400618161206899
:103AC000816921F480618161206881692A6941EA04
:103AD0000221816124E0206804F02AFB2068C1698A
:103AE00041F00801C1612068C16921F00401C16190
:103AF0002068C1692A69114311E0206804F048FB7D
:103B00002068C16941F40061C1612068C16921F484
:103B10008061C1612068C1692A6941EA0221C161ED
:103B200084F83960002084F8380070BD10B50400B6
:103B300003D094F8390010B107E0012010BD002037
:103B400084F83800204600F00CF8022084F8390090
:103B5000211D206804F0BEF9012084F839000020FE
:103B600010BD70477047000010B504460068012280
:103B700004F010FA08492068884202D007498842B8
:103B800003D1416C41F4004141642068016841F077
:103B900001010160002010BD00000140000401404F
:103BA0000249884201D1FDF7F5BE70470C0900209B
:103BB0007047704770B5026804461068D168536951
:103BC00010F00F0F50D003F0010501F4907635434B
:103BD0005DD0C20705D0CA0503D5E26B42F00102F1
:103BE000E263420705D5DA0703D0E26B42F0020236
:103BF000E263820705D5DA0703D0E26B42F00402E4
:103C0000E263020705D5DA0703D0E26B42F008024F
:103C1000E263E26B002A33D0800604D5880602D521
:103C2000204604F016FB20684069E16BC0F3801069
:103C3000090700D428B3204604F0FDFA2068416942
:103C400049061AD5416921F040014161606BA0B17C
:103C50001B490165606BFEF747FA002810D0606BC6
:103C6000016DBDE870400847830610D58B060ED560
:103C70002046BDE8704004F0ECBA2046FFF799FFFB
:103C800070BD2046FFF795FF0020E06370BD03067E
:103C900006D50B0604D52046BDE8704004F076BC7E
:103CA0004006F3D54806F1D5D168204621F0400101
:103CB000D160202184F8391000F034F970BD000083
:103CC0002782000870B5040004D094F8390000255C
:103CD00010B106E0012070BD84F83850204600F095
:103CE00023F8242084F839002068C16821F40051A9
:103CF000C160204604F0F4FA2068016921F4904183
:103D000001612068416921F02A0141612068C16890
:103D100041F40051C160E563202084F8390084F843
:103D20003A00002070BD000000B50068124987B05D
:103D300088421ED11148016841F0100101600068FD
:103D4000694600F010000590C0200090022001900C
:103D50000120029003200390072004900848FEF7FA
:103D6000ABFA002211462520FEF73CFF2520FEF786
:103D70002DFF07B000BD0000001001404438024094
:103D80000004024090F83A30202B1DD1D1B1CAB1C5
:103D900090F83830012B17D081628285C2850021CE
:103DA000C163222280F83A2080F8381001684A69FD
:103DB00042F001024A610068C16841F49071C1603B
:103DC0000020704701207047022070472DE9F04124
:103DD000504988427BD1504D5048012629780778B8
:103DE000002433467F2227B1012F09D0022F02D1B0
:103DF0000CE0552901D0047000E00370427080E0AF
:103E000002230370491C4270CEB27AE00470424A29
:103E10004170434C527880390E2972D2DFE801F0AC
:103E2000145D0709215F296131633965456A837033
:103E300067E0552004F040FD832004F03DFD0220A2
:103E400004F03AFD032006E0552004F035FD802003
:103E500004F032FD207804F02FFDAA2004F02CFDA0
:103E60004FE0552004F028FD842004F025FD607803
:103E7000F1E7552004F020FD862004F01DFDA07818
:103E8000E9E7552004F018FD882004F015FDE078DE
:103E9000E1E7552004F010FD882004F00DFDA08816
:103EA000000A04F009FD20790FE0552004F004FD1C
:103EB0008C2004F001FD6878032809D204EB40044B
:103EC000E088000A04F0F8FCA079C0B2C3E71FE064
:103ED000002004F0F1FC0020BDE7227011E06270C8
:103EE0000FE0A2700DE0E2700BE0B5F8010040BAFF
:103EF000A08006E0032A04D2688804EB420140BA9D
:103F0000C8803246BDE8F04103490248FFF73ABF96
:103F1000BDE8F081840900205A110020FC07002030
:103F20005016002070472DE9F04115460E46074611
:103F30004FF4805820E0464501D32C4610E0042D74
:103F400001D9042400E02C46F00703D1B00705D5C1
:103F5000E00701D0012403E0022401E0032CF9D0A2
:103F600072B622463146384602F056FD62B6281B2C
:103F700085B23019274486B2002DDCD1BDE8F0812E
:103F80002DE9F04115460E4607464FF480581EE0D5
:103F9000464501D32C4610E0042D01D9042400E04D
:103FA0002C46F00703D1B00705D5E00701D0012466
:103FB00003E0022401E0032CF9D0224631463846C2
:103FC00002F02AFD281B85B23019274486B2002D45
:103FD000DED1BDE8F0812DE9F04115460E460746D9
:103FE0004FF4805820E0464501D32C4610E0042DC4
:103FF00001D9042400E02C46F00703D1B00705D511
:10400000E00701D0012403E0022401E0032CF9D0F1
:1040100072B622463146384602F0B8FE62B6281B18
:1040200085B23019274486B2002DDCD1BDE8F0817D
:104030002DE9F04115460E4607464FF480581EE024
:10404000464501D32C4610E0042D01D9042400E09C
:104050002C46F00703D1B00705D5E00701D00124B5
:1040600003E0022401E0032CF9D022463146384611
:1040700002F08CFE281B85B23019274486B2002D31
:10408000DED1BDE8F081000010B572B602224FF417
:1040900008710348FFF774FF62B60148008810BD3D
:1040A0008407002010B502224FF408710248FFF780
:1040B00067FF0148008810BD84070020F8B5FDF7B0
:1040C0005BFD002493264FF4017500BFADF800603E
:1040D000042229466846FFF77EFFADF8004004221F
:1040E00029466846FFF71FFFBDF800009328EDD171
:1040F00040F20111542002F07FFD01215C2002F00A
:104100007BFD582002F090FCADF8004004222946C7
:104110006846FFF760FFFDF7C3FD092001F0A0F935
:10412000FDF7B6FDFDF7B8FD072001F099F908206D
:1041300001F096F90A2003F039FF322001F090F9DE
:1041400062B60020F8BD000070B51948007800285C
:1041500023D11848007800281FD0174A0021174C97
:10416000958B17484FF08043012D17D04578012DCE
:1041700013D15B6A456843F609565B1B114D6B43CF
:104180004FF4FA6593FBF5F54388734305EB83130E
:104190005360636041804160417070BD51609183A4
:1041A0006160A183418001214170596A416070BD05
:1041B000990600209C060020C41000200811002051
:1041C0008406002040420F00FEE700000A4800215C
:1041D0003F2201604160816082700F22C270012223
:1041E000064B02724272DB780BB1012B01D0C17217
:1041F0007047C272704700005C1600205016002005
:1042000001684A69D24352050CD46FF480624A6156
:1042100004210164002140F8301F20224273017301
:1042200001207047002070472DE9F84F0446C06A0E
:104230001E4692460D4621680A6842F480620A6072
:10424000042807D0012805D010F5803F02D0206B4C
:10425000112804D12068016841F4807101604FF099
:1042600001185346002241462046009600F0BDF852
:10427000B8BB206908F10109B0F5804F12D00620C3
:10428000216800EAD51747F0F0000861334652462E
:1042900008F10701204600F0D9F838B1206C042855
:1042A0002FD01EE0E8B240F001001FE02168E8B224
:1042B0000861334652464946204600F0C7F80028B8
:1042C000ECD12068416981690091016841F48071F5
:1042D00001605346002241462046009600F085F8D2
:1042E00010B10320BDE8F88F47F0F10021680861A4
:1042F000334652464946204600F0A8F80028CDD162
:10430000F0E70120EEE70000F8B50446C06A1E465B
:104310000D461746042807D0012805D010F5803F28
:1043200002D0206B122804D12068016841F480710A
:104330000160134600224FF001112046009600F064
:1043400054F8A0B92069B0F5804F12D0062021683A
:1043500000EAD51040F0F000086133463A460E49B5
:10436000204600F073F838B1206C042811D00320E7
:10437000F8BD05F0FE0000E0E8B2216808610649DA
:1043800033463A46891F204600F060F80028EBD1FA
:10439000F8BD0120F8BD00000800010070B5164608
:1043A0000D4604461AE02046FFF72AFF08B1012017
:1043B00070BD681C12D025B1FEF764F8801BA842BE
:1043C0000CD954F8400F40F0200044F810090020A8
:1043D0002060202161732073032070BD2068406934
:1043E000C0434007DFD4002070BD2DE9F0471E46D2
:1043F00090460D460446C1F30747DDF8209012E0D1
:10440000701C10D02EB1FEF73DF8A0EB0900B042B1
:1044100009D9002044F8300F20216173A073207364
:104420000320BDE8F0872068012F0AD0806925EAC3
:1044300000000004000C06D000214145E0D000201F
:10444000EFE74069F3E70121F7E700002DE9F047C6
:104450009A4691460D46044600264FF02008C1F3C7
:1044600007472AE020684069C043400512D420680D
:10447000016841F40071016021686FF48060486157
:1044800004202064266384F83D8084F83C60012089
:10449000BDE8F087B9F1FF3F0FD0B9F1000F05D0AB
:1044A000FDF7F0FFA0EB0A01494506D944F8306F4B
:1044B00084F80D8026730320EAE72068012F07D0D7
:1044C000D0F8180025EA00000004000CE0D0C9E78D
:1044D0004069F7E72DE9F041002590460E46044675
:1044E000202721E04069C043C0060CD421686FF04A
:1044F000100048612564256384F83D7084F83C50C1
:104500000120BDE8F0812EB1FDF7BCFFA0EB080053
:10451000B04209D954F8400F40F0200044F8040993
:10452000677025700320ECE720684169C94349069C
:10453000D8D40020E5E770B516460D4604461AE0CB
:104540002046FFF75DFE08B1012070BD681C12D047
:1045500025B1FDF797FF801BA8420CD954F8400FF6
:1045600040F0200044F810090020206020216173F1
:104570002073032070BD20684069C0430006DFD46B
:10458000002070BD002201210148FDF776BF000028
:1045900000000240FFF7F6BFC107044801D0012226
:1045A00000E000220121FDF768BF0000000002408A
:1045B00010B54FF400510448FDF75BFFBDE8104013
:1045C0003C20FDF7A3BD0000000402400249CA7A66
:1045D000002A00D1087070475C16002070B5164D97
:1045E0004FF400512846FDF73FFF04464FF4804149
:1045F0002846FDF739FF44EA40044FF400412846BD
:10460000FDF732FF0D4D44EA800410212846FDF7E6
:104610002BFF44EAC00420212846FDF725FF44EA89
:10462000001401210648FDF71FFF44EA4010C1B203
:1046300004488078484070BD0010024000080240E5
:10464000000402405C1600202DE9FC41314C02229E
:104650006846A189FFF767FCBDF80000ADF80000CF
:10466000E07901270026012817D10A2005F0BCF8BF
:10467000050012D02E606E602E8104202880A8884C
:10468000002120F47060A880EF8007202881284650
:1046900000F024F9284605F011F8BDF80000801D4F
:1046A00081B2ADF800106078A279104302D0277073
:1046B000BDE8FC8126706089814201D9ADF8000017
:1046C00005F092F820610028F1D0BDF80020A18902
:1046D000FFF729FCADF80460022240F6040101A8AE
:1046E000FFF721FCBDF80400ADF80400BDF804009C
:1046F00000050AD508480680A0896189022208447D
:10470000801E81B20448FFF70EFC206900F022F9F8
:10471000CEE7000088070020CE0600202DE9F843F0
:1047200006462648007800F00F00012807D0244CE8
:10473000A07820B1607820B10720BDE8F883F02090
:10474000FBE73588E189A81D804682B23046FFF735
:1047500042FC0027ADF80070022240F60C016846CA
:10476000FFF7E1FBBDF80000ADF80000BDF8000068
:10477000000518D4207A1349401B801FC0B20F8057
:10478000022807D228F00101C0F1020231440D488D
:10479000FBF747FDE089218902220844801E81B28F
:1047A0000848FFF718FC606908B1276101E0064876
:1047B00020610120666160700020BEE7A206002033
:1047C00088070020CE0600205C0F0020F8B5194DA8
:1047D0002220002468814FF4807028810001A88184
:1047E000E88115480A2140F60E0604804480818045
:1047F000343802220480448081802C61AC616C6179
:10480000EC61EC70ADF8004031466846FFF78BFB79
:10481000BDF80000022220F40070ADF8000031461F
:104820006846FFF7D8FBAC706C702C70AC712C71C3
:104830006C71F8BD880700209010002070B5154CF1
:1048400000256570A06920B1E16911B904F036FF57
:10485000A5616069A061E06918B1FFF75FFFE561DC
:1048600005E00D48FDF758FB08B1FFF757FFA079A9
:1048700000280DD081070BD520F00200A07120691F
:10488000FCF7D6FD002803D0A07940F00200A0710B
:1048900070BD0000880700205C10002070B50E4C31
:1048A000A5698DB16078002650B1E06940B901205A
:1048B000FDF757F86069E0610120FDF7F5F96670D2
:1048C0002846FFF72BFFA661E07810B10020E070CA
:1048D00070BD0120FBE70000880700202DE9F041B2
:1048E0000646194800270D46007800F00F00012801
:1048F00008D0B088154C20F47040B0806179490729
:1049000003D004E0F020BDE8F081012161716179FC
:1049100040EA0130B0803046FFF700FF40B10C495B
:10492000304601F0B0FB070002D045F0800502E000
:104930006079401C6071280604D5A17905F07F00DC
:104940000843A0713846DEE7A20600208807002051
:104950005C10002070B5044681882288080B04256D
:104960000126B2F5807F06D9258021F47060A080F1
:10497000E680082011E00F4910B10A79904213D067
:1049800008710D49204601F07EFB002811D02580DA
:10499000A18821F47061A180E68020812046BDE8D5
:1049A00070400021FFF79ABF2046BDE8704004F038
:1049B00085BE70BD880700209010002070B50425CA
:1049C00001260F48FDF7A8FA04000FD000F088FC7C
:1049D0000028F6D02580A18821F47061A180E680AE
:1049E000208100212046FFF779FFEAE7054800789B
:1049F000002803D0BDE87040FFF726BE70BD000060
:104A0000901000208807002070B500252846FDF78B
:104A1000F5FA184C418861810088A0810120FDF7DA
:104A2000EDFA418821810088E081A28963891344DD
:104A3000834204D90844904201D9162070BD002059
:104A4000FDF732F90120FDF72FF9608904F0CCFE63
:104A5000206110B10021E17107E00120E0710A201E
:104A600004F0C2FE206100B9022504F027FE2846AA
:104A700070BD000088070020F8B5264C00252846A8
:104A8000A570FCF76EFF0120FCF76BFFA06908B171
:104A900004F014FEE06920B1A169884201D004F05D
:104AA0000DFE606938B1A169884204D0E16988428D
:104AB00001D004F003FEA5616561E561E57040F693
:104AC0000E06ADF80050022231466846FFF72BFA79
:104AD000BDF80000022220F40070ADF8000031465D
:104AE0006846FFF778FA65702570A57125716571C4
:104AF0000948FDF711FA08B104F0E0FD0648343822
:104B0000FDF70AFA002803D0BDE8F84004F0D6BD4E
:104B1000F8BD0000880700209010002070B5044602
:104B200000260F490F4801F079FE0D4D0D4829462A
:104B300095ED060A84ED030A01F044FE688A2080A0
:104B4000A88A6080E88AA0802946064801F00EFE07
:104B5000A889E080E8892081288A6081304670BD7C
:104B6000681600201808002070B504462DED028B51
:104B70000D46B1F90600FBF7F1FB9FED238B53ECDB
:104B8000182BFBF779FB41EC100B03F0D9FE51EC2D
:104B9000100BFBF707FC2060B5F90800FBF7DEFB04
:104BA00053EC182BFBF768FB41EC100B03F0C8FE2D
:104BB00051EC100BFBF7F6FB6060B5F90A00FBF750
:104BC000CDFB53EC182BFBF757FB41EC100B03F01C
:104BD000B7FE51EC100BFBF7E5FB94ED001A9FEDCF
:104BE0000C0A00EE900A21EE001A84ED001A94EDF2
:104BF000011A21EE001A20EE800A84ED011A84EDDC
:104C0000020ABDEC028B70BD000000000000103FE6
:104C1000DE2E654238B500242346022204490548A9
:104C2000009401F053FD00B1641E204638BD000021
:104C300068160020180800202DE9FF5FDFF8F4B0A7
:104C4000DFF8F4A00024E0B200F0A8F8FFF7E2FFDC
:104C500040B19AF80100000767D5214637A003F05C
:104C60005FFE62E09AF801005646000703D5214630
:104C700038A003F055FE0BEB041808F124005D4644
:104C80000746FFF74BFF04EB440005EB8000394675
:104C90000546FFF769FF7078B24600072BD5D8EDBF
:104CA0000C0A9FED311A80EE810ADFED300A30EEFA
:104CB000200A10EE100AFBF762FB41EC100B2146B4
:104CC00053EC102B2AA003F02BFEA868FBF757FB30
:104CD000804689466868FBF752FB06460F462868FF
:104CE000FBF74DFB8DE8C00341EC100B25A053EC06
:104CF000102B03F015FE9AF80B105046012914D121
:104D00000BEB840195ED010AD1ED150A02784FF005
:104D10000101B4EEE00AF1EE10FA01FA04F101DD4E
:104D20000A4300E08A438AF80020641C032C8ADBD3
:104D3000BDE8FF9F841600205C1600204D50555B97
:104D400025645D204E4F5420574F524B494E470A21
:104D5000000000004D50555B25645D20574F524BBD
:104D60002046494E450A00000000AA43B81E1242E0
:104D700054454D505B25645D3A2025302E3266093E
:104D800000000000783D252E326609793D252E323F
:104D900066097A3D252E32660A00000010B50446E9
:104DA00000F016F809484CB1012C0AD0022C0BD1A6
:104DB00001222021BDE81040FDF75FBB0122022146
:104DC000F8E701221021F5E710BD000000000240C5
:104DD00010B5094C002202212046FDF74EFB0022AF
:104DE00010212046FDF749FB20460022BDE8104077
:104DF0002021FDF742BB0000000002402DE9F04FEA
:104E0000724887B00025016841F010010160016817
:104E100001F010010591016841F004010160016891
:104E200001F004010591016841F080010160016811
:104E300001F080010591016841F001010160016804
:104E400001F001010591016841F002010160016872
:104E500001F002010591016841F00801016000685C
:104E6000012200F00800059004215948FDF705FBD8
:104E7000DFF860B1002233215846FDF7FEFA012227
:104E800080215846FDF7F9FA4FF4FC5800224146BC
:104E90004F48FDF7F2FA4FF44059012249464E4877
:104EA000FDF7EBFA4FF47C4A002251464B48FDF7E0
:104EB000E4FA01240420CDE900040226CDE90246EB
:104EC00069464348FDF7F8F9454F0820CDE900074A
:104ED000694602953E48FDF7EFF90620CDE9000747
:104EE000404F694602953846FDF7E6F933208DE8D4
:104EF0003100694658460395FDF7DEF94020CDE9BB
:104F00000005694602945846FDF7D6F98020CDE9A0
:104F10000004CDE9024669465846FDF7CDF9302038
:104F2000CDE90005694602943846FDF7C5F9CDE99B
:104F30000045694628480294FDF7BEF901AA0327F7
:104F4000CDF8008082E8B00069462148FDF7B4F949
:104F50004FF46040CDE90005694602941C48FDF716
:104F6000ABF901AACDF8009082E8700069461A48B2
:104F7000FDF7A2F901AACDF800A082E8B0006946C9
:104F80001648FDF799F91E208DE86100694613481F
:104F9000FDF792F9002211460720FDF723FE0720B6
:104FA000FDF714FE002211460820FDF71BFE082025
:104FB000FDF70CFE002211460920FDF713FE092023
:104FC000FDF704FE07B0BDE8F08F00003038024066
:104FD000001002400000024000040240000C0240A9
:104FE00000002110000802400E4810B50C49016075
:104FF0000D49416000214FF480428160C0E90312F5
:1050000041618161C1610162FDF742FA002805D06A
:10501000BDE81040422105A003F080BC10BD000097
:105020000058004018080020A08601002E2E2F53A3
:1050300072632F6932632E6300000000104810B5C0
:105040000E4901604FF48271416000218160C160AE
:105050004FF400720161C0E90512C1610162416251
:1050600081620A21C162FEF7F8F8002805D0BDE888
:105070001040452103A003F051BC10BD003C00408E
:10508000780800202E2E2F5372632F7370692E63C1
:105090000000000010B524488EB02249016027218D
:1050A0000024C0E901144FF6FF71C0E90314FEF7B4
:1050B00093FA18B141211DA003F030FC4FF4805049
:1050C000079007A91848FEF704FB18B1472117A05D
:1050D00003F024FC1448FEF76FFC18B14C2113A018
:1050E00003F01CFC0B940BA90F480C94FEF74CFA30
:1050F00018B153210DA003F011FC40F6FF70CDE96B
:105100000040022002900022694604940648FEF7FF
:1051100027FC002803D05C2104A003F0FFFB0EB0A5
:1051200010BD000000080040D00800202E2E2F5394
:1051300072632F74696D2E630000000010B517486C
:1051400086B01549016029210024C0E901144FF4FB
:10515000FA61C0E90314FEF73FFA18B16D2110A0FF
:1051600003F0DCFB4FF48050009069460B48FEF7DB
:10517000B0FA18B173210AA003F0D0FB049404A97B
:1051800006480594FEF700FA002803D07A2104A00F
:1051900003F0C4FB06B010BD000C00400C09002059
:1051A0002E2E2F5372632F74696D2E630000000042
:1051B00010B51E488CB01C49016053210024C0E981
:1051C000011440F2CF71C0E90314FEF705FA18B1DB
:1051D0008B2117A003F0A2FB4FF48050079007A982
:1051E0001248FEF776FA18B1912111A003F096FB50
:1051F0000E48FEF79BFC18B196210DA003F08EFB24
:105200006020CDE900040294002269460748049416
:10521000FEF724FC18B19F2105A003F07FFB034893
:10522000FEF784FB0CB010BD00400140480900208F
:105230002E2E2F5372632F74696D2E6300000000B1
:105240000D4810B50B4901604FF4E1314160002178
:1052500081600C22C160C0E904128161C161FEF766
:1052600031FD002805D0BDE810405B2103A003F00C
:1052700055BB10BD00100140840900202E2E2F5375
:1052800072632F75736172742E6300000E4810B53F
:105290004FF0A04101600421416002220021C0E9D9
:1052A0000321C0E90512C16101624162C16201636B
:1052B000FDF7CAFC002805D0BDE81040452103A039
:1052C00003F02CBB10BD0000C40900202E2E2F536C
:1052D00072632F7573625F6F74672E630000000046
:1052E0008188C1F30321032901D002207047FCF714
:1052F000A3B9000010B5FCF769FBFCF733F90449CA
:10530000002001224880486048700A7010BD0000EB
:105310008406002070B51C480078002832D01B4855
:105320001B4C007808B1217821BB1A49097809BBC8
:10533000012580B9FEF7A8FE410506D5164825705F
:10534000007840B100F08AFE05E01449098811B9DF
:10535000000500D525704FF0E0254FF40074C5F826
:105360008041FBF751FD0E48007808B100F062FE65
:10537000C5F80041FCF774FBFCF78AF8BDE8704003
:10538000FCF76EB970BD0000840600209C0600206A
:10539000970600209906002095060020C2060020EE
:1053A00096060020FEE700000249002009684863D5
:1053B000704700004809002000210148FEF7D4BBD7
:1053C000480900204FF4FA61884200D90846024992
:1053D0000968486370470000480900200A4910B571
:1053E000084A0A600322C1E901200846FDF73AFB9A
:1053F000002805D0BDE81040482104A003F08EBA73
:1054000010BD0000003000406C0800202E2E2F53ED
:1054100072632F697764672E63000000704700F0A5
:105420001F02012191404009800000F1E020C0F8F6
:105430008011704700F01F02012191404009800057
:1054400000F1E020C0F88011704700F01F02012138
:1054500091404009800000F1E020C0F80011704741
:1054600000F01F02012191404009800000F1E0207E
:10547000C0F80011704700F01F020121914040095F
:10548000800000F1E020C0F8001170470907090E04
:10549000002806DA00F00F0000F1E02080F8141D6B
:1054A000704700F1E02080F8001470476422B1FBDF
:1054B000F2F310B5047823440370B1FBF2F302FB5E
:1054C00013110A22B1FBF2F3447823444370B1FB79
:1054D000F2F302FB13113031817010BD2DE9FF4151
:1054E000908954691F460E00C0F3032004D007289A
:1054F00002D0092808D023E02046FAF7B6FE85B28C
:105500007FB32A46214629E001250DE0B54209D1A5
:105510002046FAF7AAFE85B217B1002DF1D10FE0AF
:105520000C251EE06D1CADB22046FAF79EFE044429
:10553000641CB54204D82078FF2801D0FE28E5D1AC
:105540000C2577B10D2209496846FAF76AFE314603
:105550000DF10900FFF7AAFF0D2269463846FAF758
:1055600060FE04B02846BDE8F0810000B5070020C9
:1055700082890069C2F30322082A04D001EB4101A9
:1055800000EB410070470029FCD0801D7047F0B54A
:105590008A8905004FF00000C2F3032600D01020D6
:1055A000072E03D001224FF4187734E00020F0BD1D
:1055B000082E14D00B6902EB420403EB4404238849
:1055C0001F2B2BD00EDCA3F1030CBCF1090F1BD257
:1055D000DFE80CF024341A2434341A1A24000C693D
:1055E000A41DECE7BB4219D006DC202B26D02E2BC5
:1055F00014D02F2B08D121E0A3F5007CBCF1620C64
:105600001CD0BCF1010F19D0AA4202D26388184401
:1056100080B2521C92B2AA42CAD9F0BD0F304FF6E6
:10562000F07C00EA0C00AA42F3D20B2B01D0BB4263
:1056300002D16388184480B21030E9E71F304FF67A
:10564000E07C00EA0C00AA42E3D2A3F5007CBCF1A6
:10565000620CDBD0A3F5007CBCF1630CD6D020300B
:10566000D6E72DE9F0418046202101FA08F18EB2FB
:10567000FBF7FEFE034600251BE01889B0F5805FAE
:1056800016D3B8F1000F11D01F7B00240BE0E1B25C
:105690001846FFF76DFF8088304207D1641CA4B222
:1056A000B8F1000F02D0BC42F1D901E06D1CADB2DF
:1056B0005B68002BE1D12846BDE8F0810A307047D5
:1056C00010B50446FBF7D4FE03E00189A14202D0E5
:1056D00040680028F9D110BDF0B59489C4F30320C7
:1056E000E5B20024022603B3072803D0082803D01C
:1056F000012012E00020F0BD906903781069008954
:105700005843C01DC0080CE000EB4007136906EBCE
:105710004707401CDB5BC0B21C44A842F4D9E41D1F
:10572000E0080029E7D1801CF0BD07280BD069B143
:10573000082810690CD001EB410106EB4101405AE9
:10574000C01DC008F0BD10694088F9E70120F0BD18
:105750000089F5E72DE9FF5F8246202000FA0AF074
:105760001FFA80F808884FF4805BDFF880900E9D68
:1057700014460E46584507D1FBF77AFE030028D1A0
:105780005DB31B20287028E0D9F8003020E0584590
:105790001DD3BAF1000F12D01F7B00250CE0294663
:1057A0001846FFF7E5FE808810EA080F07D16D1C48
:1057B000EDB2BAF1000F02D0BD42F0D907E0039874
:1057C000198901800398801CA41EA4B203905B6811
:1057D0001BB11889012CDAD801E04FF6FF70308038
:1057E000C9F8003004B02046BDE8F09FF80700205B
:1057F0002DE9FF4F85B00F469889DDE91248C0F3C7
:105800000321994600F0FF0A3D46BB464FF4805302
:105810000291072906D00598984203D3D9F81800B9
:1058200090F800A05FEA080006D0072969D0059823
:10583000984266D3D3461AE0574503D9112009B0E0
:10584000BDE8F08F29464846FFF792FE808870B188
:10585000BF4900F00702097801F00F01B1EB420FD8
:1058600005D9400701D01A20E9E70620E7E7D9F873
:105870001C603EB1CDF8008023463946079A059852
:10588000B047DCE70598B0F5805F3BD2C7B3484628
:105890003946D9F81830FFF76BFE4088C01DC208A2
:1058A00003EB870050F8041CC8071ED00023C1F387
:1058B0004E0040000BE000BF30F8021B090A2180B7
:1058C00005785B1C41EA052124F8021B9BB2B3EB6F
:1058D000520FF1D3D10707D0218801F47F412180F5
:1058E000008841EA102020802BE131F8020B208053
:1058F00031F8020B6080201D121FFAF792FC20E1A4
:1059000000E0E4E000200390019015E1D9F8186070
:10591000002345B10598B0F5805F04D3E8B249464D
:10592000FFF735FE0346180906EB40000090E9B288
:105930004846FFF71DFE06468548007800F00F0137
:10594000307900F00700B1EB400F6FD8BD4204D0B2
:10595000B8F1000F07D0BD4205D32DB90298072832
:1059600002D024F802ABE5E03088B0F5E06F0DD34B
:105970007188082902D82F3188B207E0102902D097
:10598000202902D002E0062000E007201F2879D05D
:1059900013DC1F2875D2DFE800F03A4A4A757A4ACC
:1059A000757A7A989898AEAEAEAEAE85AEAEAE854C
:1059B000AEAEAEAEAE85AEAE4A00342837D012DC05
:1059C000302834D008DC202861D02D282FD02E2874
:1059D00058D02F2855D15AE0312828D0322826D047
:1059E00033284ED123E0B0F5187F6ED006DC352881
:1059F0001DD036281BD037287DD118E0A0F50070C7
:105A0000613862D0012860D0022874D15DE0B8F11D
:105A1000000F70D07088010703D0C118090700D1AA
:105A2000A41CC0F3031004EB400461E065E070883F
:105A3000484903F00F0231F81000904081B20098FD
:105A40005FEA037C008801D1A4F800C0B4F800C06C
:105A5000A4F800C0B8F1000F00EA010004D04CEA3D
:105A6000000CA4F800C003E0D04040EA0C00208005
:105A700020882080B0781844000739D1A41C37E072
:105A800000E038E0180722D10098008807E01807E6
:105A90001DD10098008824F8020B0098408824F853
:105AA000020B25E0180712D10098008824F8020B99
:105AB0000098408824F8020B0098808824F8040B92
:105AC0000098C08824F8020C12E0180701D00520C5
:105AD000B5E670880099C01DC2082046FAF7A1FB00
